:100000000C942A000C9447000C9447000C94470071
:100010000C9447000C9447000C9447000C944B053B
:100020000C9447000C9447000C9447000C94470034
:100030000C9447000C9447000C9447000C94470024
:100040000C9447000C9447000C9447000C94470014
:100050000C94470011241FBECFE5D8E0DEBFCDBF12
:1000600010E0A0E6B0E0EAE1FBE102C005900D92ED
:10007000A038B107D9F713E0A0E8B0E001C01D92A5
:10008000A737B107E1F70E945D080C948B0D0C9423
:100090000000AF92BF92CF92DF92EF92FF920F9348
:1000A0001F93CF93DF936C01E62EF42E8AE190E04C
:1000B0000E946E028C01009709F462C0809180005A
:1000C00090918100009739F5109381000093800092
:1000D000C3E8D0E0CE010E943303CE0109960E940E
:1000E0003303C5E9D0E0CE010E9433030F2EFEE9B1
:1000F000AF2EF0E0BF2EF02DC5010E94330387EA3A
:1001000090E00E943303D093B100C093B000B0924E
:10011000B300A092B200CE2DE110C1E0F801118E23
:10012000108EC68BF78AC192D1927F01CF010E94B7
:100130004103C8010C960E944103F8011187008712
:10014000138B028B85E090E08C1B91099587848747
:10015000868990918200981710F48093820090E035
:100160009C01220F331F220F331F220F331F820FD8
:10017000931F8D579F4FB7010E94450381E001C037
:100180008FEFDF91CF911F910F91FF90EF90DF9054
:10019000CF90BF90AF9008950F931F93CF93DF93AD
:1001A0008B01C091B400D091B500C80FD91F8091C8
:1001B00080009091810002960E94AB03E091800044
:1001C000F0918100D383C2838091B4009091B500F7
:1001D000C817D90750F4BF016E5F7F4F8091B200FE
:1001E0009091B3000E946E0309C0BF016E5F7F4F04
:1001F0008091B0009091B1000E946E03011511052D
:1002000049F06091800070918100645F7F4FC80168
:100210000E946E03DF91CF911F910F910895CF92AD
:10022000DF92EF92FF920F931F93CF93DF93809112
:10023000A7008823B9F10F2EFCEAEF2EF0E0FF2E85
:10024000F02D0F2EF7EACF2EF0E0DF2EF02DF894F0
:10025000D701ED91FC91C681D781CE010C960E9409
:10026000AB0378948E010E5F1F4FC8010E94AB0351
:100270008E8990918200981710F48093820090E00C
:100280009C01220F331F220F331F220F331F820FB7
:10029000931F8D579F4FB8010E944503F60180813F
:1002A0008823A9F60E945F0A2091B6003091B7001A
:1002B000821B930B9093B9008093B80074C0209177
:1002C000B4003091B5002F5F3F4F3093B5002093BD
:1002D000B40001979093B9008093B80021153105BF
:1002E00081F48091B0009091B1002091B2003091E2
:1002F000B3003093B1002093B0009093B30080938B
:10030000B200E091B000F091B1008081882309F43F
:100310004AC00580F681E02DC681D7812A813B81C4
:100320008091B4009091B5008217930778F43BC098
:100330000580F681E02DC681D7812A813B8180919D
:10034000B4009091B5008217930768F1F8948E017C
:100350000E5F1F4FC8010E94AB038C899D890097D7
:1003600021F0CE010C960E94AB0378948E89909177
:100370008200981710F48093820090E09C01220F75
:10038000331F220F331F220F331F820F931F8D57EE
:100390009F4FB8010E944503E091B000F091B10079
:1003A0008081882329F68091B8009091B900009748
:1003B00009F085CF8091B4009091B5009093B7007B
:1003C0008093B60020918200822F90E0FC01EE0F16
:1003D000FF1FEE0FFF1FEE0FFF1FE80FF91FED5776
:1003E000FF4F30813323D9F4222331F447C0222335
:1003F00019F42093820042C02150822F90E0FC012A
:10040000EE0FFF1FEE0FFF1FEE0FFF1FE80FF91F8C
:10041000ED57FF4F3081332351F320938200FC01CD
:10042000EE0FFF1FEE0FFF1FEE0FFF1F8E0F9F1F20
:10043000FC01ED57FF4FA181B28112960D90BC9146
:10044000A02DB283A183CF010396A817B90731F479
:1004500012968D919C911397928381830180F281F2
:10046000E02DA681B781B0938100A0938000ED912B
:10047000FC911197CD0157966C910995DF91CF9121
:100480001F910F91FF90EF90DF90CF9008950F9301
:100490001F93CF93DF93DC011596ED91FC91169796
:1004A00006811781E8012C96CE010E94AB0387EAF2
:1004B00090E0BE010E944503E0918000F091810030
:1004C00081E0D80156962C9156979689291708F401
:1004D00080E0DF91CF911F910F9108950F931F93AB
:1004E000CF93DF93EC010E94590A0091BA0010915A
:1004F000BB00C00FD11F82E0C835D80750F40C17DD
:100500001D0750F404541F4FD093BB00C093BA0092
:1005100005C000E010E002C000E010E00E94370BD0
:10052000802F912FDF91CF911F910F910895089502
:100530001092BB001092BA0008952091BA00309139
:10054000BB0088E592E0821B930B0895C29889EF67
:1005500090E00197F1F700C00000C29A8BED95E0A2
:100560000197F1F700C000000895CF93C82FC098FD
:10057000C19888B38F7088BB88B39C2F907F892BDC
:1005800088BB0E94A60288B38F7088BB88B3C295CF
:10059000C07FC82BC8BB0E94A602CF9108958FEFE1
:1005A00087BB84E088BB83E30E94B50282E30E949C
:1005B000B50288E20E94B5028CE00E94B50208955F
:1005C000CF93C82FC09AC19888B38F7088BB88B367
:1005D0009C2F907F892B88BB0E94A60288B38F70C6
:1005E00088BB88B3C295C07FC82BC8BB0E94A60237
:1005F000CF910895813051F0813028F0823049F058
:10060000833069F409C0862F80580AC0862F805431
:1006100007C0862F805804C0862F805801C080E80C
:100620000E94B502089581E00E94B5020895CF931B
:10063000DF93EC018881882331F021960E94E0024B
:1006400089918823D9F7DF91CF910895CF93DF93D4
:10065000EC01862F642F0E94FA02CE010E9417033C
:10066000DF91CF910895FC010396928381832FEF50
:100670003FEF34832383968385839087878310821B
:100680000895FC01118610860895CF93DF93EC0145
:10069000FB0189819A81DC0112962D913C9113977F
:1006A0003383228329813A813583248312962D91C5
:1006B0003C911397D90115967C936E931497DC01A6
:1006C00013967C936E9312977A836983D187C08740
:1006D00088818F5F8883DF91CF910895CF93DF93D7
:1006E000AC01EB01288139818FEF2F3F380721F4CE
:1006F000FA01A781B08518C0DA011396FA01858145
:100700009681FC01808191812817390768F0129643
:100710000D90BC91A02D1296ED91FC9113978081C4
:1007200091812817390798F71296ED91FC9113974C
:10073000FB83EA83D583C483BD83AC831396DC93A8
:10074000CE93129759874887FA0180818F5F808303
:10075000DF91CF910895FC01A281B38184819581BD
:1007600015969C938E931497A481B5818281938171
:1007700013969C938E931297A085B18511968D91B7
:100780009C9112978E179F0731F484819581129660
:100790009C938E931197118610868C9181508C9327
:1007A000089521E1FC012083319732E23083FC017E
:1007B0003297A3E3A083FC0133976083FC01349755
:1007C0007083FC0135971082FC01369760E86083E6
:1007D000FC0137971082FC01389762E06083FC01CE
:1007E000399763E06083FC013A9764E06083FC0121
:1007F0003B9765E06083FC013C9766E06083FC0109
:100800003D9767E06083FC013E9768E06083FC01F0
:100810003F9769E06083FC01709760E16083FC01B1
:1008200071972083FC01729722E12083FC0173976A
:1008300023E12083FC01749724E12083FC01759758
:1008400025E12083FC01769726E12083FC01779740
:1008500027E12083FC01789728E12083FC01799728
:1008600029E12083FC017A9720E22083FC017B9719
:1008700021E22083FC017C973083FC017D9723E2F9
:100880002083FC017E974083FC017F975083FC010D
:10089000B09726E22083FC01B19727E22083FC0178
:1008A000B29728E22083FC01B39729E22083FC0160
:1008B000B49720E32083FC01B59721E3208386973A
:1008C00008951BBC8CE78ABD8BE08EBD89B7806123
:1008D00089BFA0911403B0911503CD91CDBFDD91D7
:1008E000DEBFFF91EF91DF91CF91BF91AF919F91CB
:1008F0008F917F916F915F914F913F912F911F91B8
:100900000F91FF90EF90DF90CF90BF90AF909F90AE
:100910008F907F906F905F904F903F902F901F909F
:100920000F900FBE0F90089581E0089508950F92E3
:100930000FB6F8940F921F9211242F923F924F926C
:100940005F926F927F928F929F92AF92BF92CF925F
:10095000DF92EF92FF920F931F932F933F934F934A
:100960005F936F937F938F939F93AF93BF93CF9337
:10097000DF93EF93FF93A0911403B09115030DB68D
:100980000D920EB60D920E94650CA0911403B091C9
:100990001503CD91CDBFDD91DEBFFF91EF91DF91CA
:1009A000CF91BF91AF919F918F917F916F915F9107
:1009B0004F913F912F911F910F91FF90EF90DF90FA
:1009C000CF90BF90AF909F908F907F906F905F90EF
:1009D0004F903F902F901F900F900FBE0F90089553
:1009E0000F920FB6F8940F921F9211242F923F92FC
:1009F0004F925F926F927F928F929F92AF92BF922F
:100A0000CF92DF92EF92FF920F931F932F933F931A
:100A10004F935F936F937F938F939F93AF93BF9306
:100A2000CF93DF93EF93FF93A0911403B09115033D
:100A30000DB60D920EB60D920E94710A0E94650CC1
:100A4000A0911403B0911503CD91CDBFDD91DEBF10
:100A5000FF91EF91DF91CF91BF91AF919F918F91D6
:100A60007F916F915F914F913F912F911F910F91C6
:100A7000FF90EF90DF90CF90BF90AF909F908F90BE
:100A80007F906F905F904F903F902F901F900F90AE
:100A90000FBE0F9008950E94F0041895CF93DF9336
:100AA000DC01CD91DC911197209721F15C964C915E
:100AB0005C9716962D913C911797240F311D179630
:100AC0003C932E9316971296ED91FC9113972E1747
:100AD0003F0720F01796DC93CE93169716963C911D
:100AE000169717962C91862F972F632F722F50E011
:100AF0000E946C0DDF91CF910895CF93DF93EC01AD
:100B00002C8D2223A9F14423B9F48C819D81422F9D
:100B100050E00E946C0D2C8D8C819D81820F911D67
:100B20009D838C832A813B818217930708F18881FA
:100B300099819D838C831CC08E819F81422F50E0C0
:100B40000E946C0D4C8D50E0509541955F4F8E8109
:100B50009F81840F951F9F838E83288139818217FF
:100B6000930730F48A819B81480F591F5F834E831E
:100B70008A8D8F5F8A8FDF91CF9108950F931F9396
:100B8000CF93DF93EC010FB6F8940F928E8D181669
:100B9000BCF48989882329F413C08989882321F426
:100BA0000FC08E010F5E1F4FC8010E94DF0C88230B
:100BB00011F00E94680D8E8D81508E8F18166CF387
:100BC0008FEF8E8F0F900FBE0FB6F8940F928D8D12
:100BD0001816BCF48885882329F413C088858823D7
:100BE00021F40FC08E01085F1F4FC8010E94DF0C67
:100BF000882311F00E94680D8D8D81508D8F1816FD
:100C00006CF38FEF8D8F0F900FBEDF91CF911F91FF
:100C10000F910895AF92BF92CF92DF92EF92FF9221
:100C20000F931F93CF93DF93F82EE62E882309F4BA
:100C300046C08FE190E00E946E028C01009709F49B
:100C400041C0CF2CDD24AE2CBB24CA9CE001CB9C40
:100C5000D00DDA9CD00D1124CE0101960E946E02B7
:100C6000AC01F80191838083009719F1C80FD91F57
:100C7000D383C283128E95838483C6010197A89E75
:100C80009001A99E300DB89E300D1124240F351F00
:100C900037832683F38EE48E8FEF858F868FC8018E
:100CA00008960E943303C80141960E943303C8018D
:100CB0000BC0C8010E94970280E090E005C080E070
:100CC00090E002C080E090E0DF91CF911F910F9102
:100CD000FF90EF90DF90CF90BF90AF9008958F92EC
:100CE0009F92BF92CF92DF92EF92FF920F931F934A
:100CF000CF93DF9300D000D00F92CDB7DEB78C0139
:100D00004B015D834C83B22EFF24EE24E394CC246C
:100D1000DD246894C3F8C80ED91E0FB6F8940F925C
:100D2000F801928D838D9817A8F4C801B4014B2D5A
:100D30000E947D05F8018189882341F0C801419610
:100D40000E94DF0C813011F40E9497040F900FBEB7
:100D500081E052C08C819D81009721F40F900FBEDD
:100D600080E04AC0FF2029F4CE0101960E94270DA1
:100D7000FE2C0F900FBE0E94590A0FB6F8940F92E6
:100D8000F801858D8F3F09F4158EF801868D8F3F10
:100D900009F4168E0F900FBECE010196BE016C5F56
:100DA0007F4F0E94320D882309F50FB6F8940F92F9
:100DB000F801928D0F900FBEF801838D981781F482
:100DC0006C817D81C6010E94C20CC8010E94BE05D3
:100DD0000E94370B882309F0A0CF0E9497049DCF73
:100DE000C8010E94BE050E94370B97CFC8010E9420
:100DF000BE050E94370B80E00F900F900F900F9070
:100E00000F90DF91CF911F910F91FF90EF90DF90A6
:100E1000CF90BF909F908F9008950F931F93CF9383
:100E2000DF93EC018A019A8D8B8D9817C0F4CE0167
:100E3000422F0E947D058E8D8F3F69F4898988231A
:100E400081F0CE0141960E94DF0C882361F081E0A1
:100E5000F801808309C08F5F8E8F81E005C080E03C
:100E600003C081E001C081E0DF91CF911F910F911C
:100E700008958F929F92BF92CF92DF92EF92FF924E
:100E80000F931F93CF93DF9300D000D00F92CDB775
:100E9000DEB78C014B015D834C83B22EFF24EE2420
:100EA000E3940F2EF1E1CF2EDD24F02DC80ED91ED4
:100EB0000FB6F8940F92F801828D882351F1E680E5
:100EC000F780C801B4010E944E05BB2081F4F801EF
:100ED000828D8150828F80858823B9F0C801089661
:100EE0000E94DF0C813089F40E9497040EC0F80143
:100EF000F782E6828189882341F0C80141960E94E9
:100F0000DF0C882311F00E9497040F900FBE81E040
:100F100050C08C819D81009721F40F900FBE80E01E
:100F200048C0FF2029F4CE0101960E94270DFE2C17
:100F30000F900FBE0E94590A0FB6F8940F92F80155
:100F4000858D8F3F09F4158EF801868D8F3F09F44A
:100F5000168E0F900FBECE010196BE016C5F7F4FC3
:100F60000E94320D8823F9F40FB6F8940F92F8011D
:100F7000828D0F900FBE882381F46C817D81C60124
:100F80000E94C20CC8010E94BE050E94370B882334
:100F900009F08ECF0E9497048BCFC8010E94BE0536
:100FA0000E94370B85CFC8010E94BE050E94370BF7
:100FB00080E00F900F900F900F900F90DF91CF91E6
:100FC0001F910F91FF90EF90DF90CF90BF909F9077
:100FD0008F9008950F931F93CF93DF93EC018A01B5
:100FE0008A8D8823D1F0CE010E944E058A8D8150D2
:100FF0008A8F8D8D8F3F69F48885882381F0CE019B
:1010000008960E94DF0C882361F081E0F80180835C
:1010100009C08F5F8D8F81E005C080E003C081E053
:1010200001C081E0DF91CF911F910F9108950FB61C
:10103000F8940F92FC01828D0F900FBE0895FC0171
:10104000828D0895CF93DF93EC01888199810E946E
:101050009702CE010E949702DF91CF910895FC0183
:10106000928D81E0911180E00895FC01228D81E054
:10107000938D291380E00895C0E6D0E00E94130309
:10108000CE010E94170380ED97E00E94FB0BF6CF84
:10109000CCE6D0E00E941303CE010E9417038FE735
:1010A00094E8AEE181509040A040E1F700C000001C
:1010B00080ED97E00E94FB0BEDCFAF92BF92CF92F5
:1010C000DF92EF92FF920F930E94CF0288E498E0A4
:1010D00060E070E045E550E020E030E003E0EE2421
:1010E000FF24CC24DD24AA24BB240E94C5088CE361
:1010F00098E060E070E045E550E020E030E002E09C
:101100000E94C5080E94280A80E090E00F91FF909D
:10111000EF90DF90CF90BF90AF900895CF93DF9383
:10112000EC01E0911403F091150393838283809185
:101130001C0390911D03C817D90768F48091200300
:101140009091210360911403709115036E5F7F4F9E
:101150000E946E0317C08091220390912303609137
:101160001403709115036E5F7F4F0E946E03809190
:101170007D0090917E00C817D90720F4D0937E009F
:10118000C0937D00DF91CF9108954F925F926F924F
:101190007F928F929F92BF92CF92DF92EF92FF92B7
:1011A0000F931F93CF93DF932C014B01EA01390179
:1011B000B02E81E290E00E946E028C01009709F44B
:1011C000E2C0C114D10409F0F3C0CE010E946E0246
:1011D0006C01F801908F878B009729F4C8010E9459
:1011E00097028FEFD5C0C60165EA70E0AE010E949C
:1011F000750D9E0121503040F8018789908D6C015A
:10120000C20ED31EC8014996B40148E050E00E94C6
:101210007C0DF80110A2CB2DF4E0FB1508F4C4E01E
:10122000F801C68B88249924689481F8800E911E59
:10123000C4010E944103C8010C960E944103F801B9
:101240001187008785E090E08C1B91099587848742
:10125000138B028BC601B201A3010E94D103F801D6
:1012600091838083E114F10419F0F7011183008365
:101270000FB6F8940F9280911E038F5F80931E0328
:1012800080911403909115030097D9F510931503DD
:101290000093140380911E03813009F041C0C0E027
:1012A000D0E0CE01880F991F880F991F880F991FD2
:1012B0008C0F9D1F8A5D9C4F0E9433032196C53081
:1012C000D10579F7C3E5D3E0CE010E9433030F2E99
:1012D000FCE5EF2EF3E0FF2EF02DC7010E94330353
:1012E00085E693E00E9433038EE693E00E94330389
:1012F000D0932303C0932203F0922103E0922003B2
:101300000FC080911A03882359F4E0911403F091DF
:1013100015038689B81620F0109315030093140363
:10132000F801868990912403981710F48093240380
:10133000909125039F5F9093250390911B0398172D
:1013400010F480931B0390E09C01220F331F220FA7
:10135000331F220F331F820F931F8A5D9C4FB401EE
:101360000E9445030F900FBE80911A03882369F0F5
:10137000E0911403F091150386898B1540F40E94C7
:10138000970481E005C08FEF03C081E001C081E0D8
:10139000DF91CF911F910F91FF90EF90DF90CF9051
:1013A000BF909F908F907F906F905F904F90089527
:1013B000FC01D08EC78A17CFEF92FF920F931F9335
:1013C000CF93DF937C010FB6F8940F9280911403B2
:1013D00090911503E816F90621F0E114F10441F4A7
:1013E00002C0EE24FF24C0911403D091150301C064
:1013F000E7018E010E5F1F4FC8010E94AB038C896D
:101400009D89009721F0CE010C960E94AB038EE6D9
:1014100093E0B8010E94450380911F038F5F809382
:101420001F03809125038F5F809325030F900FBECC
:1014300080911A03882329F0E114F10411F40E9429
:101440009704DF91CF911F910F91FF90EF90089536
:10145000AF92BF92CF92DF92EF92FF920F9387EC01
:101460009BE068E770E045E550E020E030E000E018
:10147000EE24FF24CC24DD24AA24BB240E94C5082A
:10148000813049F4F89480931A0310921D0310924E
:101490001C030E9461040F91FF90EF90DF90CF90AA
:1014A000BF90AF900895F89410921A030E9496048A
:1014B0000895809119038F5F8093190308950FB6E3
:1014C000F8940F9280911C0390911D030F900FBE12
:1014D000089580911C0390911D03089580911E032F
:1014E00008950F931F93CF93DF938091190388235F
:1014F00009F0B3C080911C0390911D030196909355
:101500001D0380931C0380911C0390911D03009781
:1015100099F580912203909123032091200330912B
:10152000210330932303209322039093210380937C
:101530002003809116038F5F80931603E0912203AE
:10154000F09123038081882339F48FEF9FEF9093EC
:101550007E0080937D0010C0E0912203F091230370
:101560000580F681E02D0680F781E02D8281938150
:1015700090937E0080937D0020911C0330911D0389
:1015800080917D0090917E002817390708F46AC089
:10159000E0912203F09123038081882399F0E09168
:1015A0002203F09123030580F681E02DC681D781C7
:1015B0008A819B8120911C0330911D0328173907D4
:1015C000F8F419C08FEF9FEF90937E0080937D0019
:1015D00049C0E0912203F09123030580F681E02DBC
:1015E000C681D7818A819B8120911C0330911D0384
:1015F0002817390728F490937E0080937D0032C02D
:101600008E010E5F1F4FC8010E94AB038C899D891C
:10161000009721F0CE010C960E94AB038E89909129
:101620001B03981710F480931B0390E09C01220F7A
:10163000331F220F331F220F331F820F931F8A5D28
:101640009C4FB8010E944503E0912203F0912303CF
:101650008081882309F0BDCFB5CF809118038F5FBB
:1016600080931803DF91CF911F910F910895AF924E
:10167000BF92CF92DF92EF92FF920F931F93CF937F
:10168000DF930FB6F8940F928091190381508093E5
:10169000190380911903882309F069C080911E0302
:1016A000882381F567C0D601ED91FC91C681D78171
:1016B000CE010C960E94AB038E010E5F1F4FC80136
:1016C0000E94AB038E8990911B03981710F48093AE
:1016D0001B0390E09C01220F331F220F331F220FA8
:1016E000331F820F931F8A5D9C4FB8010E944503F0
:1016F000E0911403F09115039E898689981788F06C
:10170000BA2C0FC0BB240F2EF5E6EF2EF3E0FF2E10
:10171000F02D0F2EFAE6CF2EF3E0DF2EF02DAA24C7
:10172000A394F7018081882309F0BDCF809118032D
:10173000882381F080911803882399F00E94710A10
:101740008091180381508093180380911803882397
:10175000A9F707C0F1E0BF1621F08091170381308F
:1017600041F4109217030E94970481E003C080E0C7
:1017700001C080E00F900FBEDF91CF911F910F91BC
:10178000FF90EF90DF90CF90BF90AF9008950EE65E
:1017900013E00F2EF3E7EF2EF3E0FF2EF02D8091F4
:1017A0001F038823E1F30E94590AD801CC910E94BB
:1017B000370BCC23A1F30FB6F8940F92D701ED911C
:1017C000FC91C681D781CE0102960E94AB03809125
:1017D0001E03815080931E0380911F0381508093CC
:1017E0001F030F900FBE8F89988D0E949702CE0124
:1017F0000E949702D4CFCF93DF93EC010097B1F012
:101800000E94590A80911C0390911D03C80FD91F93
:10181000809114039091150302960E94AB03CE01B0
:101820000E948E080E94370B882311F40E949704AF
:10183000DF91CF9108950F931F93CF93DF938C0186
:10184000EB010E94590AF80180819181C80FD91FCC
:1018500020911C0330911D032817390768F4C8171D
:10186000D90750F580911C0390911D03D183C0834B
:101870008C179D07B0F40BC0C817D907C8F080912A
:101880001C0390911D038C179D0790F015C080914B
:1018900014039091150302960E94AB03CE010E949F
:1018A0008E080E94370B882359F40E94970408C0C1
:1018B000F801D183C083EBCFF801D183C083F1CF8E
:1018C000DF91CF911F910F91089580911903882383
:1018D00099F480911B0390E0FC01EE0FFF1FEE0FC7
:1018E000FF1FEE0FFF1F8E0F9F1FFC01EA5DFC4FD5
:1018F0008081882329F01BC081E08093170308951D
:1019000080911B03815080931B0380911B0390E007
:10191000FC01EE0FFF1FEE0FFF1FEE0FFF1F8E0FDC
:101920009F1FFC01EA5DFC4F8081882349F3809171
:101930001B0390E0FC01EE0FFF1FEE0FFF1FEE0FE9
:10194000FF1FE80FF91FEA5DFC4FA181B2811296DB
:101950000D90BC91A02DB283A183CF010396A8174F
:10196000B90731F412968D919C91139792838183DC
:101970000180F281E02D86819781909315038093F9
:1019800014030895CF93DF93EB01609114037091DA
:101990001503645F7F4F0E946E0380911403909142
:1019A000150302960E94AB0380911C0390911D03C6
:1019B0008C0F9D1F0E948E08DF91CF9108950F9389
:1019C0001F93CF93DF93DC011596ED91FC91169751
:1019D00006811781E8012C96CE010E94AB0380910D
:1019E00019038823E9F4E8012296CE010E94AB0393
:1019F000F801868990911B03981710F480931B03BC
:101A000090E09C01220F331F220F331F220F331F40
:101A1000820F931F8A5D9C4FBE010E94450305C043
:101A200085E693E0BE010E944503E0911403F09126
:101A3000150381E0D80156962C915697968929175F
:101A400008F480E0DF91CF911F910F910895FC0180
:101A500080911603808380911C0390911D039283D3
:101A600081830895FC010FB6F8940F9280911603BC
:101A70009081981749F080911C0390911D0321815A
:101A8000328182179307F0F480911C0390911D031B
:101A900021813281DB014D915C911197821B930B67
:101AA0008417950788F480911C0390911D03281BCF
:101AB000390B240F351F2D933C93CF010E94270D26
:101AC00080E003C081E001C081E00F900FBE089567
:101AD00081E0809317030895FB01DC0102C00190AF
:101AE0000D9241505040D8F70895DC0101C06D932C
:101AF00041505040E0F70895FB01DC014150504057
:101B000048F001900D920020C9F701C01D9241508C
:0A1B10005040E0F70895F894FFCF6D
:101B1A004920616D205461736B2032004920616D48
:101B2A00205461736B20310049444C4500FFFF008B
:00000001FF
