:100000000C942A000C9447000C9447000C94470071
:100010000C9447000C9447000C9447000C949605F0
:100020000C9447000C9447000C9447000C94470034
:100030000C9447000C9447000C9447000C94470024
:100040000C9447000C9447000C9447000C94470014
:100050000C94470011241FBECFE5D8E0DEBFCDBF12
:1000600010E0A0E6B0E0E2EAFCE102C005900D92EB
:10007000A239B107D9F713E0A2E9B0E001C01D929F
:10008000A337B107E1F70E94F9080C944F0E0C94C6
:100090000000AF92BF92CF92DF92EF92FF920F9348
:1000A0001F93CF93DF936C01F62EE42E8AE190E04C
:1000B0000E948002082F192F0115110509F463C051
:1000C0008091920090919300009739F510939300DE
:1000D00000939200CEE9D0E0CE010E944C03CE0105
:1000E00009960E944C03CAEBD0E0CE010E944C035B
:1000F0000F2EF3ECAF2EF0E0BF2EF02DC5010E94C5
:100100004C0384E990E00E944C03D093B700C09365
:10011000B600B092B900A092B800FF2011F0FF2401
:10012000F394F801118E108EF68AE78AE801C992DD
:10013000D992CE010E945A03C8010C960E945A031C
:10014000F80111870087138B028B82E090E08F19F2
:10015000910995878487868990919D00981710F45E
:1001600080939D0090E09C01220F331F220F331FCC
:10017000220F331F820F931F82569F4FBE010E9492
:100180005E0381E001C08FEFDF91CF911F910F914E
:10019000FF90EF90DF90CF90BF90AF9008950F93B6
:1001A0001F93CF93DF938B01C091B400D091B50022
:1001B000C80FD91F809192009091930002960E94DF
:1001C000C4036091920070919300FB01D383C283BA
:1001D0008091B4009091B500C817D90748F46E5FBC
:1001E0007F4F8091B8009091B9000E94850308C0AC
:1001F0006E5F7F4F8091B6009091B7000E9485039B
:100200000115110549F06091920070919300645FAF
:100210007F4FC8010E948503DF91CF911F910F91FD
:100220000895CF92DF92EF92FF920F931F93CF9397
:10023000DF93809194008823B9F10F2EF9E9EF2E16
:10024000F0E0FF2EF02D0F2EF4E9CF2EF0E0DF2EA0
:10025000F02DF894D701ED91FC91C681D781CE01A4
:100260000C960E94C40378948E010E5F1F4FC80144
:100270000E94C4038E8990919D00981710F480937A
:100280009D0090E09C01220F331F220F331F220F8D
:10029000331F820F931F82569F4FB8010E945E0347
:1002A000F60180818823A9F60E94050B2091B000F9
:1002B0003091B100821B930B9093B3008093B200F6
:1002C00074C02091B4003091B5002F5F3F4F309340
:1002D000B5002093B40001979093B3008093B200CF
:1002E0002115310581F48091B6009091B7002091DD
:1002F000B8003091B9003093B7002093B6009093C6
:10030000B9008093B800E091B600F091B700808109
:10031000882309F44AC00580F681E02DC681D78183
:100320002A813B818091B4009091B5008217930798
:1003300078F43BC00580F681E02DC681D7812A8103
:100340003B818091B4009091B5008217930768F1CA
:10035000F8948E010E5F1F4FC8010E94C4038C8960
:100360009D89009721F0CE010C960E94C4037894D9
:100370008E8990919D00981710F480939D0090E0D5
:100380009C01220F331F220F331F220F331F820FB6
:10039000931F82569F4FB8010E945E03E091B60002
:1003A000F091B7008081882329F68091B200909166
:1003B000B300009709F085CF8091B4009091B5000B
:1003C0009093B1008093B00040919D00842F90E005
:1003D000FC01EE0FFF1FEE0FFF1FEE0FFF1FE80FD8
:1003E000F91FE256FF4F20812223E9F4442331F420
:1003F00057C0442329F440939D0052C02EE930E0B9
:100400004150842F90E0FC01EE0FFF1FEE0FFF1F05
:10041000EE0FFF1FE80FF91FE20FF31F5081552366
:1004200041F340939D009C01220F331F220F331F85
:10043000220F331F280F391FD901A256BF4F119623
:10044000ED91FC9112970280F381E02D1296FC93BE
:10045000EE9311972F553F4FE217F30729F42281AE
:100460003381FD0132832183FC01EE0FFF1FEE0F6C
:10047000FF1FEE0FFF1F8E0F9F1FFC01E256FF4F65
:100480000180F281E02DA681B781B0939300A09303
:100490009200ED91FC911197CD0157966C910995C1
:1004A000DF91CF911F910F91FF90EF90DF90CF9050
:1004B00008950F931F93CF93DF93DC011596ED9171
:1004C000FC91169706811781E8012C96CE010E94B7
:1004D000C40384E990E0BE010E945E03E0919200B3
:1004E000F091930081E0D80156962C915697968909
:1004F000291708F480E0DF91CF911F910F910895A3
:10050000EF92FF920F931F93CF93DF938C010E9482
:10051000FF0AC091CC00D091CD000C0F1D1F22E02E
:100520000835120750F4C017D10750F4C253DF4FFB
:100530001093CD000093CC0005C0C0E0D0E002C015
:10054000C0E0D0E00E94E10B7E018C2F9F2DDF9157
:10055000CF911F910F91FF90EF9008950895109201
:10056000CD001092CC0008958091CC009091CD00E8
:1005700028E532E0281B390B822F932F0895C2986B
:1005800089EF90E00197F1F700C00000C29A8BED6F
:1005900095E00197F1F700C0000008951F93182F10
:1005A000C098C19888B38F7088BB88B3912F907F13
:1005B000892B88BB0E94BF0288B38F7088BB88B329
:1005C0001295107F182B18BB0E94BF021F9108952F
:1005D0008FEF87BB84E088BB83E30E94CE0282E377
:1005E0000E94CE0288E20E94CE028CE00E94CE02DF
:1005F00008951F93182FC09AC19888B38F7088BB35
:1006000088B3912F907F892B88BB0E94BF0288B34B
:100610008F7088BB88B31295107F182B18BB0E946F
:10062000BF021F910895813051F0813028F082304F
:1006300049F0833069F409C0862F80580AC0862F9C
:10064000805407C0862F805804C0862F805801C070
:1006500080E80E94CE02089581E00E94CE020895B3
:10066000CF93DF93EC018881882331F021960E949B
:10067000F90289918823D9F7DF91CF910895CF931B
:10068000DF93EC01862F642F0E941303CE010E949A
:100690003003DF91CF910895FC010396928381830B
:1006A0002FEF3FEF3483238396838583908787835F
:1006B00010820895FC01118610860895CF93DF9370
:1006C000FC01DB0121813281E9018A819B81139642
:1006D0009C938E9312978181928115969C938E9311
:1006E00014978A819B81EC017D836C83E9017B8374
:1006F0006A83728361831996FC93EE9318978081C5
:100700008F5F8083DF91CF910895CF93DF93FC01BA
:10071000DB012D913C911197BFEF2F3F3B0719F45F
:10072000A781B08518C0DC0113961296CD91DC919B
:100730001397888199812817390768F012960D90D0
:10074000BC91A02D1296CD91DC911397888199814F
:100750002817390798F712968D919C911397EB0102
:100760009B838A83EC017D836C83EB01BD83AC8327
:1007700013967C936E931297F987E88780818F5F39
:100780008083DF91CF910895FC01A281B3818481A0
:10079000958115969C938E931497A481B58182813F
:1007A000938113969C938E931297A085B185119691
:1007B0008D919C9112978E179F0731F484819581BA
:1007C00012969C938E931197118610868C9181506E
:1007D0008C93089580EF8ABB8FEF8BBB08951092A6
:1007E000700320E081E090E04BB330E02C5F3F4F9E
:1007F000BC0102C0660F771F2A95E2F79B01209586
:1008000024232BBBE3ECF9E03197F1F700C00000A3
:1008100029B32F702F3049F089B38F708093610016
:1008200089B38F708F30E1F714C03BB32091700310
:10083000622F70E06C5F7F4FAC0102C0440F551F08
:100840006A95E2F7432B4BBB2F5F20937003243054
:1008500058F2809161008B3081F08C3018F4873031
:1008600099F40FC08D3029F08E3071F410926F031F
:100870000BC081E080936F0307C082E080936F0319
:1008800003C083E080936F03809161008F3F19F470
:100890008093600013C0E0916F03F0E080917003DB
:1008A000EE0FFF1FEE0FFF1FE80FF11DEE59FF4F78
:1008B0008081809360008FEF809361008091600061
:1008C000089521E1FC01208392E2929383E38293D5
:1008D00062937293129280E88293129282E08293E2
:1008E00083E0829384E0829385E0829386E0829322
:1008F00087E0829388E0829389E0829380E182930B
:10090000229382E1829383E1829384E1829385E161
:10091000829386E1829387E1829388E1829389E1E1
:10092000829380E2829381E28293929383E2829324
:100930004293529386E2829387E2829388E2829383
:1009400089E2829380E3829381E382939F01215025
:100950003040822F932F08951BBC8CE78ABD8BE01B
:100960008EBD89B7806189BFA0912703B09128030C
:10097000CD91CDBFDD91DEBFFF91EF91DF91CF91A2
:10098000BF91AF919F918F917F916F915F914F91A7
:100990003F912F911F910F91FF90EF90DF90CF909B
:1009A000BF90AF909F908F907F906F905F904F908F
:1009B0003F902F901F900F900FBE0F90089581E0F1
:1009C000089508950F920FB6F8940F921F92112474
:1009D0002F923F924F925F926F927F928F929F924F
:1009E000AF92BF92CF92DF92EF92FF920F931F933D
:1009F0002F933F934F935F936F937F938F939F9327
:100A0000AF93BF93CF93DF93EF93FF93A09127030F
:100A1000B09128030DB60D920EB60D920E941A0DDC
:100A2000A0912703B0912803CD91CDBFDD91DEBF0A
:100A3000FF91EF91DF91CF91BF91AF919F918F91F6
:100A40007F916F915F914F913F912F911F910F91E6
:100A5000FF90EF90DF90CF90BF90AF909F908F90DE
:100A60007F906F905F904F903F902F901F900F90CE
:100A70000FBE0F9008950F920FB6F8940F921F9229
:100A800011242F923F924F925F926F927F928F929A
:100A90009F92AF92BF92CF92DF92EF92FF920F930D
:100AA0001F932F933F934F935F936F937F938F93F6
:100AB0009F93AF93BF93CF93DF93EF93FF93A09157
:100AC0002703B09128030DB60D920EB60D920E9429
:100AD0001B0B0E941A0DA0912703B0912803CD9102
:100AE000CDBFDD91DEBFFF91EF91DF91CF91BF913F
:100AF000AF919F918F917F916F915F914F913F91B6
:100B00002F911F910F91FF90EF90DF90CF90BF90AA
:100B1000AF909F908F907F906F905F904F903F909D
:100B20002F901F900F900FBE0F9008950E943B05CD
:100B30001895CF93DF93FC01A081B1811097B9F094
:100B4000448D26813781240F311D37832683C2814E
:100B5000D3812C173D0710F0B783A68336812781F8
:100B6000862F972F632F722F50E00E94300EDF9157
:100B7000CF910895CF93DF93EC012C8D2223A9F11F
:100B80004423B9F48C819D81422F50E00E94300EA5
:100B90002C8D8C819D81820F911D9D838C832A8158
:100BA0003B818217930708F1888199819D838C830B
:100BB0001CC08E819F81422F50E00E94300E2C8DF0
:100BC00030E0309521953F4F8E819F81820F931F9A
:100BD0009F838E83488159818417950730F48A81D9
:100BE0009B81280F391F3F832E838A8D8F5F8A8FC9
:100BF000DF91CF9108950F931F93CF93DF93EC0173
:100C00000FB6F8940F928E8D1816BCF4898988233C
:100C100029F413C08989882321F40FC08E010F5E47
:100C20001F4FC8010E94A50D882311F00E942C0EB1
:100C30008E8D81508E8F18166CF38FEF8E8F0F90E4
:100C40000FBE0FB6F8940F928D8D1816BCF48885E0
:100C5000882329F413C08885882321F40FC08E01CE
:100C6000085F1F4FC8010E94A50D882311F00E9444
:100C70002C0E8D8D81508D8F18166CF38FEF8D8F0C
:100C80000F900FBEDF91CF911F910F9108958F921A
:100C90009F92AF92BF92CF92DF92EF92FF920F930B
:100CA0001F93CF93DF93182F062F882309F449C091
:100CB0008FE190E00E948002E82EF92EE701209754
:100CC00009F442C0A12EBB24802E99248A9C600185
:100CD0008B9CD00C9A9CD00C1124C60101960E94CA
:100CE0008002282F392F398328832115310519F1E6
:100CF000C20ED31EDB82CA821A8E3D832C830894D7
:100D0000A108B108A89CC001A99C900DB89C900DA9
:100D10001124280F391F3F832E831B8F0C8F8FEFD9
:100D20008D8F8E8FCE0108960E944C03CE01419686
:100D30000E944C030BC0CE010E94AE02C0E0D0E086
:100D400005C0C0E0D0E002C0C0E0D0E07E018C2F42
:100D50009F2DDF91CF911F910F91FF90EF90DF902A
:100D6000CF90BF90AF909F908F9008951F93162FB4
:100D700060E00E944706FC01009709F0128F8E2F59
:100D80009F2F1F9108955F926F927F928F929F92F3
:100D9000AF92BF92CF92DF92EF92FF920F931F9389
:100DA000DF93CF9300D000D00F92CDB7DEB78C0188
:100DB0003B015D834C83522EDD247E010894E11CAF
:100DC000F11CCC24C394AA24BB246894A2F8AC0ED2
:100DD000BD1E88249924689483F8880E991E0FB646
:100DE000F8940F92F801928D838D9817A8F4C8019A
:100DF000B301452D0E94BA05F8018189882341F08D
:100E0000C80141960E94A50D813011F40E94E204B0
:100E10000F900FBE81E04EC08C819D81009721F420
:100E20000F900FBE80E046C0DD2021F4C7010E9474
:100E3000EB0DDC2C0F900FBE0E94FF0A0FB6F8944A
:100E40000F92F801858D8F3F09F4158EF801868D7C
:100E50008F3F09F4168E0F900FBEC701B5010E9497
:100E6000F60D882309F50FB6F8940F92F801928DCC
:100E70000F900FBEF801838D981781F46C817D81EE
:100E8000C4010E94880DC8010E94FB050E94E10B6D
:100E9000882309F0A4CF0E94E204A1CFC8010E94D8
:100EA000FB050E94E10B9BCFC8010E94FB050E943D
:100EB000E10B80E00F900F900F900F900F90CF916B
:100EC000DF911F910F91FF90EF90DF90CF90BF9037
:100ED000AF909F908F907F906F905F9008950F9349
:100EE0001F93CF93DF93EC018A019A8D8B8D981716
:100EF000C0F4CE01422F0E94BA058E8D8F3F69F457
:100F00008989882381F0CE0141960E94A50D88230E
:100F100061F081E0F801808309C08F5F8E8F81E0EE
:100F200005C080E003C081E001C081E0DF91CF9186
:100F30001F910F9108955F926F927F928F929F926F
:100F4000AF92BF92CF92DF92EF92FF920F931F93D7
:100F5000DF93CF9300D000D00F92CDB7DEB78C01D6
:100F60003B015D834C83522EDD247E010894E11CFD
:100F7000F11CCC24C394AA24BB246894A2F8AC0E20
:100F8000BD1E0F2EF1E18F2E9924F02D880E991E93
:100F90000FB6F8940F92F801828D882351F1E68004
:100FA000F780C801B3010E949905552081F4F8012A
:100FB000828D8150828F80858823B9F0C801089680
:100FC0000E94A50D813089F40E94E2040EC0F80150
:100FD000F782E6828189882341F0C80141960E9408
:100FE000A50D882311F00E94E2040F900FBE81E04E
:100FF0004CC08C819D81009721F40F900FBE80E042
:1010000044C0DD2021F4C7010E94EB0DDC2C0F90C1
:101010000FBE0E94FF0A0FB6F8940F92F801858D5B
:101020008F3F09F4158EF801868D8F3F09F4168ED7
:101030000F900FBEC701B5010E94F60D8823F9F489
:101040000FB6F8940F92F801828D0F900FBE88238F
:1010500081F46C817D81C4010E94880DC8010E94C9
:10106000FB050E94E10B882309F092CF0E94E20465
:101070008FCFC8010E94FB050E94E10B89CFC801F8
:101080000E94FB050E94E10B80E00F900F900F90F3
:101090000F900F90CF91DF911F910F91FF90EF90E4
:1010A000DF90CF90BF90AF909F908F907F906F9088
:1010B0005F9008950F931F93CF93DF93EC018A0104
:1010C0008A8D8823D1F0CE010E9499058A8D8150A6
:1010D0008A8F8D8D8F3F69F48885882381F0CE01BA
:1010E00008960E94A50D882361F081E0F8018083B5
:1010F00009C08F5F8D8F81E005C080E003C081E073
:1011000001C081E0DF91CF911F910F9108950FB63B
:10111000F8940F92FC01828D0F900FBE0895FC0190
:10112000828D0895CF93DF93EC01888199810E948D
:10113000AE02CE010E94AE02DF91CF910895FC0174
:10114000928D81E0911180E00895FC01228D81E073
:10115000938D291380E00895EF92FF920F931F93D0
:10116000DF93CF930F92CDB7DEB78E010F5F1F4F86
:101170000F2EF2E7EF2EF0E0FF2EF02D809171039D
:1011800090917203B8014FEF5FEF20E00E949B0740
:101190008130A1F7809126038F5F809326038730EB
:1011A00030F00E942C03C7010E943003E7CF8981F1
:1011B0000E94F902E3CF0F931F93DF93CF930F9217
:1011C000CDB7DEB78E010F5F1F4F0E94EF038983FB
:1011D0008F3F51F08091710390917203B8014FEFEE
:1011E0005FEF20E00E94C30682E390E00E94AC0C17
:1011F000ECCFAF92BF92CF92DF92EF92FF920F931C
:101200000E94E8020E94EA0386E061E00E9447062D
:1012100090937203809371038CEA98E067E770E023
:1012200045E550E020E030E001E0EE24FF24CC244E
:10123000DD24AA24BB240E946B098BED98E06FE7A4
:1012400070E045E550E020E030E002E00E946B09EC
:101250000E94CE0A80E090E00F91FF90EF90DF9027
:10126000CF90BF90AF900895CF93DF93EC01E091C2
:101270002703F09128039383828380912B0390911D
:101280002C03C817D90768F480914A0390914B0347
:1012900060912703709128036E5F7F4F0E94850342
:1012A00017C080914C0390914D036091270370917A
:1012B00028036E5F7F4F0E94850380918F0090917D
:1012C0009000C817D90720F4D0939000C0938F00E6
:1012D000DF91CF9108952F923F924F925F926F923C
:1012E0007F928F929F92BF92CF92DF92EF92FF9266
:1012F0000F931F93CF93DF931C013B01EA01290158
:10130000B02E470181E290E00E948002082F192F41
:101310000115110509F4D9C0C114D10409F0ECC0BC
:10132000CE010E948002C82ED92EF801878B908FA3
:10133000C114D10429F4C8010E94AE028FEFCAC0C3
:101340008C2D9D2D65EA70E07E014C2F5F2D0E9453
:10135000390E2197F8018789908DC80FD91FC801D0
:101360004996B30148E050E00E94400EF80110A2F7
:10137000CB2CBB2011F0CC24C394F801C68AEE24F8
:10138000FF246894E1F8E00EF11EC7010E945A03A1
:10139000C8010C960E945A03F8011187008782E069
:1013A00090E08C19910995878487138B028BCE016D
:1013B000B101A2010E946104F8019183808381142C
:1013C000910419F0F401118300830FB6F8940F9281
:1013D00080914F038F5F80934F03809127039091FB
:1013E0002803009781F51093280300932703809129
:1013F0004F038130B9F5CFE2D3E0CE010E944C0318
:10140000CE0109960E944C03CDE5D3E0CE010E94A7
:101410004C030F2EF6E6CF2EF3E0DF2EF02DC601A3
:101420000E944C0381E493E00E944C0382E593E028
:101430000E944C03D0934D03C0934C03D0924B03B6
:10144000C0924A030FC080915003882359F4E09161
:101450002703F09128038689B81620F010932803FB
:1014600000932703F801868990915C03981710F484
:1014700080935C0390915B039F5F90935B039091DB
:101480002E03981710F480932E0390E09C01220FF6
:10149000331F220F331F220F331F820F931F815DD3
:1014A0009C4FB7010E945E030F900FBE80915003C6
:1014B000882369F0E0912703F091280386898B1532
:1014C00040F40E94E20481E005C08FEF03C081E098
:1014D00001C081E0DF91CF911F910F91FF90EF90BC
:1014E000DF90CF90BF909F908F907F906F905F9094
:1014F0004F903F902F900895F801D08EC78A20CF4B
:10150000EF92FF920F931F93CF93DF93EC010FB6EF
:10151000F8940F928091270390912803C817D90758
:1015200019F0209741F402C0C0E0D0E000912703F9
:101530001091280301C08E01EE24FF246894E1F885
:10154000E00EF11EC7010E94C403F8018489958949
:10155000009721F0C8010C960E94C40382E593E035
:10156000B7010E945E03809151038F5F8093510306
:1015700080915B038F5F80935B030F900FBE809120
:101580005003882321F0209711F40E94E204DF9198
:10159000CF911F910F91FF90EF900895AF92BF925E
:1015A000CF92DF92EF92FF920F9381E79CE06AE87F
:1015B00070E045E550E020E030E000E0EE24FF245C
:1015C000CC24DD24AA24BB240E946B09813049F479
:1015D000F8948093500310922C0310922B030E94D6
:1015E000AC040F91FF90EF90DF90CF90BF90AF9041
:1015F0000895F894109250030E94E1040895809198
:101600002D038F5F80932D0308950FB6F8940F92EA
:1016100020912B0330912C030F900FBE822F932F1C
:10162000089520912B0330912C03822F932F08953E
:1016300080914F0308950F931F93CF93DF93809171
:101640002D03882309F0B3C080912B0390912C03C4
:10165000019690932C0380932B0380912B03909100
:101660002C03009799F580914C0390914D032091A4
:101670004A0330914B0330934D0320934C039093D6
:101680004B0380934A0380912A038F5F80932A0340
:10169000E0914C03F0914D038081882339F48FEF62
:1016A0009FEF9093900080938F0010C0E0914C03C7
:1016B000F0914D030580F681E02D0680F781E02D45
:1016C000828193819093900080938F0020912B03CF
:1016D00030912C0380918F0090919000281739074A
:1016E00008F46AC0E0914C03F0914D038081882397
:1016F00099F0E0914C03F0914D030580F681E02DC7
:10170000C681D7818A819B8120912B0330912C0344
:1017100028173907F8F419C08FEF9FEF90939000C6
:1017200080938F0049C0E0914C03F0914D030580F8
:10173000F681E02DC681D7818A819B8120912B0380
:1017400030912C032817390728F490939000809348
:101750008F0032C08E010E5F1F4FC8010E94C4036C
:101760008C899D89009721F0CE010C960E94C403BC
:101770008E8990912E03981710F480932E0390E099
:101780009C01220F331F220F331F220F331F820FA2
:10179000931F815D9C4FB8010E945E03E0914C0352
:1017A000F0914D038081882309F0BDCFB5CF8091A2
:1017B0004E038F5F80934E03DF91CF911F910F9166
:1017C0000895AF92BF92CF92DF92EF92FF920F9364
:1017D0001F93CF93DF930FB6F8940F9280912D0350
:1017E000815080932D0380912D03882309F069C0D7
:1017F00080914F03882381F567C0D601ED91FC915C
:10180000C681D781CE010C960E94C4038E010E5F63
:101810001F4FC8010E94C4038E8990912E03981710
:1018200010F480932E0390E09C01220F331F220FAF
:10183000331F220F331F820F931F815D9C4FB8010E
:101840000E945E03E0912703F09128039E89868918
:10185000981788F0BA2C0FC0BB240F2EF1E4EF2E9E
:10186000F3E0FF2EF02D0F2EF6E4CF2EF3E0DF2E67
:10187000F02DAA24A394F7018081882309F0BDCF1D
:1018800080914E03882381F080914E03882399F044
:101890000E941B0B80914E03815080934E038091D8
:1018A0004E038823A9F707C0FB2DF13021F080916A
:1018B0002903813041F4109229030E94E20481E05F
:1018C00003C080E001C080E00F900FBEDF91CF9198
:1018D0001F910F91FF90EF90DF90CF90BF90AF904E
:1018E0000895CF92DF92FF920F931F93CF93DF93D0
:1018F00002E513E00F2EF7E5CF2EF3E0DF2EF02DFB
:10190000809151038823E1F30E94FF0AD801FC90E3
:101910000E94E10BFF20A1F30FB6F8940F92D601BD
:10192000ED91FC91C681D781CE0102960E94C4033D
:1019300080914F03815080934F03809151038150D8
:10194000809351030F900FBE8F89988D0E94AE0235
:10195000CE010E94AE02D4CF0F931F93CF93DF939B
:10196000EC010097B1F00E94FF0A00912B03109147
:101970002C03809127039091280302960E94C403B0
:10198000CE01800F911F0E9434090E94E10B882331
:1019900011F40E94E204DF91CF911F910F910895FD
:1019A0000F931F93CF93DF938C01EB010E94FF0AEB
:1019B000F80180819181C80FD91F20912B033091AC
:1019C0002C032817390768F4C817D90750F58091F8
:1019D0002B0390912C03D183C0838C179D07B0F407
:1019E0000BC0C817D907C8F080912B0390912C0326
:1019F0008C179D0790F015C08091270390912803C4
:101A000002960E94C403CE010E9434090E94E10B99
:101A1000882359F40E94E20408C0F801D183C083EE
:101A2000EBCFF801D183C083F1CFDF91CF911F912C
:101A30000F91089580912D03882399F480912E03AE
:101A400090E0FC01EE0FFF1FEE0FFF1FEE0FFF1FD8
:101A50008E0F9F1FFC01E15DFC4F8081882329F0E0
:101A60001DC081E08093290308952FE233E0809127
:101A70002E03815080932E0380912E0390E0FC0171
:101A8000EE0FFF1FEE0FFF1FEE0FFF1F8E0F9F1FAA
:101A9000F901E80FF91F8081882349F380912E0313
:101AA00090E09C01220F331F220F331F220F331FA0
:101AB000280F391FD901A15DBC4F1196ED91FC9102
:101AC00012970280F381E02D1296FC93EE9311970A
:101AD0002E5C3C4FE217F30729F422813381FD018C
:101AE00032832183FC01EE0FFF1FEE0FFF1FEE0F6D
:101AF000FF1F8E0F9F1FFC01E15DFC4F0180F281F3
:101B0000E02D868197819093280380932703089581
:101B1000CF93DF93EB016091270370912803645FFB
:101B20007F4F0E948503809127039091280302969E
:101B30000E94C40380912B0390912C038C0F9D1F56
:101B40000E943409DF91CF9108950F931F93CF9393
:101B5000DF93DC011596ED91FC911697C681D78134
:101B60008E01045F1F4FC8010E94C40380912D03A2
:101B70008823E9F48E010E5F1F4FC8010E94C40341
:101B80008E8990912E03981710F480932E0390E085
:101B90009C01220F331F220F331F220F331F820F8E
:101BA000931F815D9C4FB8010E945E0305C081E4D4
:101BB00093E0B8010E945E03E0912703F0912803AF
:101BC00081E02E899689291708F480E0DF91CF9172
:101BD0001F910F910895FC0180912A0380838091C9
:101BE0002B0390912C03928381830895FC010FB6FF
:101BF000F8940F9280912A039081981749F0809170
:101C00002B0390912C032181328182179307F0F4EA
:101C100040912B0350912C0321813281DB018D9166
:101C20009C911197421B530B4817590788F4409118
:101C30002B0350912C03241B350B820F931F8D9384
:101C40009C93CF010E94EB0D80E003C081E001C0B6
:101C500081E00F900FBE089581E0809329030895DD
:101C6000FB01DC0102C001900D9241505040D8F7B9
:101C70000895DC0101C06D9341505040E0F7089594
:101C8000FB01DC014150504048F001900D920020D2
:101C9000C9F701C01D9241505040E0F70895F894F3
:021CA000FFCF74
:101CA200FFFF373839303435363031323330303067
:101CB200303077616974004C63645461736B004B1C
:101CC20065797061645461736B0049444C4500FF4F
:021CD200FF0011
:00000001FF
