S015000052544F535F746573745F4558332E7372656379
S11300000C942A000C9447000C9447000C9447006D
S11300100C9447000C9447000C9447000C94BE04C5
S11300200C9447000C9447000C9447000C94470030
S11300300C9447000C9447000C9447000C94470020
S11300400C9447000C9447000C9447000C94470010
S11300500C94470011241FBECFE5D8E0DEBFCDBF0E
S113006010E0A0E6B0E0E0E3FAE102C005900D92F2
S1130070A836B107D9F713E0A8E6B0E001C01D9295
S1130080AF34B107E1F70E94E0070C94160D0C940D
S11300900000AF92BF92CF92DF92EF92FF920F9344
S11300A01F93CF93DF936C01E62EF42E8AE190E048
S11300B00E946E028C01009709F462C0809168006E
S11300C090916900009739F51093690000936800D6
S11300D0CBE6D0E0CE010E94A602CE0109960E9492
S11300E0A602CDE7D0E0CE010E94A6020F2EF6E8CC
S11300F0AF2EF0E0BF2EF02DC5010E94A6028FE8BE
S113010090E00E94A602D0939900C0939800B09208
S11301109B00A0929A00CE2DE110C1E0F801118E4F
S1130120108EC68BF78AC192D1927F01CF010E94B3
S1130130B402C8010C960E94B402F801118700872A
S1130140138B028B83E090E08C1B91099587848745
S1130150868990916A00981710F480936A0090E061
S11301609C01220F331F220F331F220F331F820FD4
S1130170931F85599F4FB7010E94B80281E001C0C7
S11301808FEFDF91CF911F910F91FF90EF90DF9050
S1130190CF90BF90AF9008950F931F93CF93DF93A9
S11301A08B01C0919C00D0919D00C80FD91F8091F4
S11301B068009091690002960E941E03E091680015
S11301C0F0916900D383C28380919C0090919D003B
S11301D0C817D90750F4BF016E5F7F4F80919A0012
S11301E090919B000E94E10209C0BF016E5F7F4FA6
S11301F080919800909199000E94E10201151105E7
S113020049F06091680070916900645F7F4FC80194
S11302100E94E102DF91CF911F910F910895CF9237
S1130220DF92EF92FF920F931F93CF93DF9380910E
S11302308F008823B9F10F2EF4E9EF2EF0E0FF2EA2
S1130240F02D0F2EFFE8CF2EF0E0DF2EF02DF894E6
S1130250D701ED91FC91C681D781CE010C960E9405
S11302601E0378948E010E5F1F4FC8010E941E0367
S11302708E8990916A00981710F480936A0090E038
S11302809C01220F331F220F331F220F331F820FB3
S1130290931F85599F4FB8010E94B802F6018081CF
S11302A08823A9F60E94EA0920919E0030919F00BC
S11302B0821B930B9093A1008093A00074C02091A3
S11302C09C0030919D002F5F3F4F30939D00209301
S11302D09C0001979093A1008093A0002115310503
S11302E081F4809198009091990020919A00309126
S11302F09B00309399002093980090939B008093E7
S11303009A00E0919800F09199008081882309F483
S11303104AC00580F681E02DC681D7812A813B81C0
S113032080919C0090919D008217930778F43BC0C4
S11303300580F681E02DC681D7812A813B81809199
S11303409C0090919D008217930768F1F8948E01A8
S11303500E5F1F4FC8010E941E038C899D89009760
S113036021F0CE010C960E941E0378948E89909100
S11303706A00981710F480936A0090E09C01220FA1
S1130380331F220F331F220F331F820F931F8559F0
S11303909F4FB8010E94B802E0919800F091990033
S11303A08081882329F68091A0009091A100009774
S11303B009F085CF80919C0090919D0090939F00BF
S11303C080939E0020916A00822F90E0FC01EE0F42
S11303D0FF1FEE0FFF1FEE0FFF1FE80FF91FE55978
S11303E0FF4F30813323D9F4222331F447C0222331
S11303F019F420936A0042C02150822F90E0FC013E
S1130400EE0FFF1FEE0FFF1FEE0FFF1FE80FF91F88
S1130410E559FF4F3081332351F320936A00FC01E7
S1130420EE0FFF1FEE0FFF1FEE0FFF1F8E0F9F1F1C
S1130430FC01E559FF4FA181B28112960D90BC9148
S1130440A02DB283A183CF010396A817B90731F475
S113045012968D919C911397928381830180F281EE
S1130460E02DA681B781B0936900A0936800ED9157
S1130470FC911197CD0157966C910995DF91CF911D
S11304801F910F91FF90EF90DF90CF9008950F93FD
S11304901F93CF93DF93DC011596ED91FC91169792
S11304A006811781E8012C96CE010E941E038FE875
S11304B090E0BE010E94B802E0916800F0916900EA
S11304C081E0D80156962C9156979689291708F4FD
S11304D080E0DF91CF911F910F9108950F931F93A7
S11304E0CF93DF93EC010E94E4090091A2001091E4
S11304F0A300C00FD11F82E0C835D80750F40C17F1
S11305001D0750F40C551F4FD093A300C093A200B5
S113051005C000E010E002C000E010E00E94C20A42
S1130520802F912FDF91CF911F910F9108950895FE
S11305301092A3001092A20008952091A20030917D
S1130540A30088E592E0821B930B0895FC010396B7
S1130550928381832FEF3FEF3483238396838583B4
S11305609087878310820895FC0111861086089570
S1130570CF93DF93EC01FB0189819A81DC01129610
S11305802D913C9113973383228329813A813583BA
S1130590248312962D913C911397D90115967C933F
S11305A06E931497DC0113967C936E9312977A835F
S11305B06983D187C08788818F5F8883DF91CF91DA
S11305C00895CF93DF93AC01EB01288139818FEF3C
S11305D02F3F380721F4FA01A781B08518C0DA014A
S11305E01396FA0185819681FC01808191812817F7
S11305F0390768F012960D90BC91A02D1296ED91DA
S1130600FC911397808191812817390798F71296E6
S1130610ED91FC911397FB83EA83D583C483BD8357
S1130620AC831396DC93CE93129759874887FA01CB
S113063080818F5F8083DF91CF910895FC01A28137
S1130640B3818481958115969C938E931497A4818C
S1130650B5818281938113969C938E931297A08582
S1130660B18511968D919C9112978E179F0731F445
S11306708481958112969C938E931197118610868E
S11306808C9181508C93089521E1FC012083319752
S113069032E23083FC013297A3E3A083FC01339759
S11306A06083FC0134977083FC0135971082FC0150
S11306B0369760E86083FC0137971082FC01389715
S11306C062E06083FC01399763E06083FC013A9740
S11306D064E06083FC013B9765E06083FC013C9728
S11306E066E06083FC013D9767E06083FC013E9710
S11306F068E06083FC013F9769E06083FC017097C8
S113070060E16083FC0171972083FC01729722E110
S11307102083FC01739723E12083FC01749724E177
S11307202083FC01759725E12083FC01769726E15F
S11307302083FC01779727E12083FC01789728E147
S11307402083FC01799729E12083FC017A9720E238
S11307502083FC017B9721E22083FC017C9730837A
S1130760FC017D9723E22083FC017E974083FC01FA
S11307707F975083FC01B09726E22083FC01B19758
S113078027E22083FC01B29728E22083FC01B3977F
S113079029E22083FC01B49720E32083FC01B59770
S11307A021E32083869708951BBC8CE78ABD8BE0E8
S11307B08EBD89B7806189BFA091FC02B091FD0212
S11307C0CD91CDBFDD91DEBFFF91EF91DF91CF9150
S11307D0BF91AF919F918F917F916F915F914F9155
S11307E03F912F911F910F91FF90EF90DF90CF9049
S11307F0BF90AF909F908F907F906F905F904F903D
S11308003F902F901F900F900FBE0F90089581E09E
S1130810089508950F920FB6F8940F921F92112421
S11308202F923F924F925F926F927F928F929F92FC
S1130830AF92BF92CF92DF92EF92FF920F931F93EA
S11308402F933F934F935F936F937F938F939F93D4
S1130850AF93BF93CF93DF93EF93FF93A091FC02E9
S1130860B091FD020DB60D920EB60D920E94F00BE2
S1130870A091FC02B091FD02CD91CDBFDD91DEBF10
S1130880FF91EF91DF91CF91BF91AF919F918F91A4
S11308907F916F915F914F913F912F911F910F9194
S11308A0FF90EF90DF90CF90BF90AF909F908F908C
S11308B07F906F905F904F903F902F901F900F907C
S11308C00FBE0F9008950F920FB6F8940F921F92D7
S11308D011242F923F924F925F926F927F928F9248
S11308E09F92AF92BF92CF92DF92EF92FF920F93BB
S11308F01F932F933F934F935F936F937F938F93A4
S11309009F93AF93BF93CF93DF93EF93FF93A09104
S1130910FC02B091FD020DB60D920EB60D920E942E
S1130920FC090E94F00BA091FC02B091FD02CD9154
S1130930CDBFDD91DEBFFF91EF91DF91CF91BF91EC
S1130940AF919F918F917F916F915F914F913F9163
S11309502F911F910F91FF90EF90DF90CF90BF9058
S1130960AF909F908F907F906F905F904F903F904B
S11309702F901F900F900FBE0F9008950E94630454
S11309801895CF93DF93DC01CD91DC9111972097DB
S113099021F15C964C915C9716962D913C9117979A
S11309A0240F311D17963C932E9316971296ED91B2
S11309B0FC9113972E173F0720F01796DC93CE93E4
S11309C0169716963C91169717962C91862F972F6B
S11309D0632F722F50E00E94F70CDF91CF9108959E
S11309E0CF93DF93EC012C8D2223A9F14423B9F496
S11309F08C819D81422F50E00E94F70C2C8D8C81BC
S1130A009D81820F911D9D838C832A813B81821756
S1130A10930708F1888199819D838C831CC08E8102
S1130A209F81422F50E00E94F70C4C8D50E050956E
S1130A3041955F4F8E819F81840F951F9F838E8385
S1130A40288139818217930730F48A819B81480F6A
S1130A50591F5F834E838A8D8F5F8A8FDF91CF9179
S1130A6008950F931F93CF93DF93EC010FB6F8947F
S1130A700F928E8D1816BCF48989882329F413C02B
S1130A808989882321F40FC08E010F5E1F4FC8018E
S1130A900E946A0C882311F00E94F30C8E8D815001
S1130AA08E8F18166CF38FEF8E8F0F900FBE0FB6CC
S1130AB0F8940F928D8D1816BCF48885882329F438
S1130AC013C08885882321F40FC08E01085F1F4F4F
S1130AD0C8010E946A0C882311F00E94F30C8D8DCA
S1130AE081508D8F18166CF38FEF8D8F0F900FBE82
S1130AF0DF91CF911F910F910895AF92BF92CF9242
S1130B00DF92EF92FF920F931F93CF93DF93F82E10
S1130B10E62E882309F446C08FE190E00E946E021D
S1130B208C01009709F441C0CF2CDD24AE2CBB24EA
S1130B30CA9CE001CB9CD00DDA9CD00D1124CE01CF
S1130B4001960E946E02AC01F801918380830097A4
S1130B5019F1C80FD91FD383C283128E958384835E
S1130B60C6010197A89E9001A99E300DB89E300D34
S1130B701124240F351F37832683F38EE48E8FEFE1
S1130B80858F868FC80108960E94A602C8014196E7
S1130B900E94A602C8010BC0C8010E94970280E00F
S1130BA090E005C080E090E002C080E090E0DF913A
S1130BB0CF911F910F91FF90EF90DF90CF90BF9056
S1130BC0AF9008958F929F92BF92CF92DF92EF924F
S1130BD0FF920F931F93CF93DF9300D000D00F9217
S1130BE0CDB7DEB78C014B015D834C83B22EFF245D
S1130BF0EE24E394CC24DD246894C3F8C80ED91EF3
S1130C000FB6F8940F92F801928D838D9817A8F47B
S1130C10C801B4014B2D0E94F004F8018189882396
S1130C2041F0C80141960E946A0C813011F40E947F
S1130C300A040F900FBE81E052C08C819D81009701
S1130C4021F40F900FBE80E04AC0FF2029F4CE01AA
S1130C5001960E94B20CFE2C0F900FBE0E94E40974
S1130C600FB6F8940F92F801858D8F3F09F4158E15
S1130C70F801868D8F3F09F4168E0F900FBECE01BA
S1130C800196BE016C5F7F4F0E94BD0C882309F55D
S1130C900FB6F8940F92F801928D0F900FBEF801E1
S1130CA0838D981781F46C817D81C6010E944D0C5F
S1130CB0C8010E9431050E94C20A882309F0A0CF0E
S1130CC00E940A049DCFC8010E9431050E94C20AF5
S1130CD097CFC8010E9431050E94C20A80E00F909C
S1130CE00F900F900F900F90DF91CF911F910F9164
S1130CF0FF90EF90DF90CF90BF909F908F900895DA
S1130D000F931F93CF93DF93EC018A019A8D8B8D00
S1130D109817C0F4CE01422F0E94F0048E8D8F3FAD
S1130D2069F48989882381F0CE0141960E946A0C76
S1130D30882361F081E0F801808309C08F5F8E8F82
S1130D4081E005C080E003C081E001C081E0DF9163
S1130D50CF911F910F9108958F929F92BF92CF923E
S1130D60DF92EF92FF920F931F93CF93DF9300D004
S1130D7000D00F92CDB7DEB78C014B015D834C835D
S1130D80B22EFF24EE24E3940F2EF1E1CF2EDD24C6
S1130D90F02DC80ED91E0FB6F8940F92F801828D6B
S1130DA0882351F1E680F780C801B4010E94C10490
S1130DB0BB2081F4F801828D8150828F8085882345
S1130DC0B9F0C80108960E946A0C813089F40E9427
S1130DD00A040EC0F801F782E6828189882341F073
S1130DE0C80141960E946A0C882311F00E940A04EB
S1130DF00F900FBE81E050C08C819D81009721F43B
S1130E000F900FBE80E048C0FF2029F4CE01019668
S1130E100E94B20CFE2C0F900FBE0E94E4090FB684
S1130E20F8940F92F801858D8F3F09F4158EF8011F
S1130E30868D8F3F09F4168E0F900FBECE0101965A
S1130E40BE016C5F7F4F0E94BD0C8823F9F40FB67E
S1130E50F8940F92F801828D0F900FBE882381F4CD
S1130E606C817D81C6010E944D0CC8010E94310530
S1130E700E94C20A882309F08ECF0E940A048BCFF5
S1130E80C8010E9431050E94C20A85CFC8010E9490
S1130E9031050E94C20A80E00F900F900F900F90CE
S1130EA00F90DF91CF911F910F91FF90EF90DF9002
S1130EB0CF90BF909F908F9008950F931F93CF93DF
S1130EC0DF93EC018A018A8D8823D1F0CE010E9440
S1130ED0C1048A8D81508A8F8D8D8F3F69F48885F6
S1130EE0882381F0CE0108960E946A0C882361F061
S1130EF081E0F801808309C08F5F8D8F81E005C098
S1130F0080E003C081E001C081E0DF91CF911F91B7
S1130F100F9108950FB6F8940F92FC01828D0F90F3
S1130F200FBE0895FC01828D0895CF93DF93EC01E9
S1130F30888199810E949702CE010E949702DF91D5
S1130F40CF910895FC01928D81E0911180E0089584
S1130F50FC01228D81E0938D291380E00895D09ABD
S1130F6080914D0390914E0360E070E04FEF5FEF8E
S1130F7020E00E94AC06C1E080914D0390914E03A5
S1130F8060E070E04FEF5FEF20E00E94AC0681303C
S1130F9099F78BB38C278BBBEFCFA098989B0BC092
S1130FA080914D0390914E0360E070E040E050E08A
S1130FB020E00E94E20588EC90E00E94860BEECFD0
S1130FC0AF92BF92CF92DF92EF92FF920F9381E0A4
S1130FD060E00E947D0590934E0380934D0300973B
S1130FE039F060E070E040E050E020E00E94E2056B
S1130FF08DEC97E060E070E045E550E020E030E003
S113100002E0EE24FF24CC24DD24AA24BB240E9485
S113101057088FEA97E060E070E045E550E020E093
S113102030E001E00E9457080E94B30980E090E09C
S11310300F91FF90EF90DF90CF90BF90AF90089505
S1131040CF93DF93EC01E091FC02F091FD029383D6
S113105082838091040390910503C817D90768F42B
S113106080910803909109036091FC027091FD0244
S11310706E5F7F4F0E94E10217C080910A03909136
S11310800B036091FC027091FD026E5F7F4F0E9422
S1131090E1028091650090916600C817D90720F499
S11310A0D0936600C0936500DF91CF9108954F926D
S11310B05F926F927F928F929F92BF92CF92DF92B4
S11310C0EF92FF920F931F93CF93DF932C014B0169
S11310D0EA013901B02E81E290E00E946E028C0197
S11310E0009709F4DBC0C114D10409F0ECC0CE01AF
S11310F00E946E026C01F801908F878B009729F48F
S1131100C8010E9497028FEFCEC0C60165EA70E065
S1131110AE010E94000D9E0121503040F8018789E4
S1131120908D6C01C20ED31EC8014996B40148E0EB
S113113050E00E94070DF80110A2CB2DF2E0FB1540
S113114008F4C2E0F801C68B88249924689481F8D5
S1131150800E911EC4010E94B402C8010C960E9424
S1131160B402F8011187008783E090E08C1B910999
S113117095878487138B028BC601B201A3010E9459
S11311804403F80191838083E114F10419F0F70119
S1131190118300830FB6F8940F92809106038F5F3A
S11311A0809306038091FC029091FD020097A1F5C3
S11311B01093FD020093FC02809106038130D9F55F
S11311C0CEE0D3E0CE010E94A602CE0109960E9491
S11311D0A602CE0142960E94A602C9E2D3E0CE0145
S11311E00E94A6020F2EF2E3EF2EF3E0FF2EF02D65
S11311F0C7010E94A6028BE393E00E94A60284E446
S113120093E00E94A602D0930B03C0930A03F092CA
S11312100903E09208030FC080910203882359F464
S1131220E091FC02F091FD028689B81620F010933B
S1131230FD020093FC02F801868990910C03981733
S113124010F480930C0390910D039F5F90930D0312
S113125090910303981710F48093030390E09C018A
S1131260220F331F220F331F220F331F820F931FAE
S1131270825F9C4FB4010E94B8020F900FBE809110
S11312800203882369F0E091FC02F091FD02868953
S11312908B1540F40E940A0481E005C08FEF03C05F
S11312A081E001C081E0DF91CF911F910F91FF9008
S11312B0EF90DF90CF90BF909F908F907F906F9032
S11312C05F904F900895FC01D08EC78A1ECFEF9295
S11312D0FF920F931F93CF93DF937C010FB6F89483
S11312E00F928091FC029091FD02E816F90621F01C
S11312F0E114F10441F402C0EE24FF24C091FC0285
S1131300D091FD0201C0E7018E010E5F1F4FC8019D
S11313100E941E038C899D89009721F0CE010C96B2
S11313200E941E0384E493E0B8010E94B8028091F5
S113133007038F5F8093070380910D038F5F809372
S11313400D030F900FBE80910203882329F0E1144E
S1131350F10411F40E940A04DF91CF911F910F91BF
S1131360FF90EF900895AF92BF92CF92DF92EF92E9
S1131370FF920F9382E59BE060E670E045E550E064
S113138020E030E000E0EE24FF24CC24DD24AA2475
S1131390BB240E945708813049F4F89480930203D7
S11313A010920503109204030E94D4030F91FF903E
S11313B0EF90DF90CF90BF90AF900895F894109283
S11313C002030E9409040895809101038F5F8093B2
S11313D0010308950FB6F8940F928091040390913D
S11313E005030F900FBE08958091040390910503A7
S11313F008958091060308950F931F93CF93DF936D
S113140080910103882309F0B3C080910403909173
S113141005030196909305038093040380910403CC
S113142090910503009799F580910A0390910B031D
S1131430209108033091090330930B0320930A038E
S113144090930903809308038091FE028F5F809339
S1131450FE02E0910A03F0910B038081882339F4A2
S11314608FEF9FEF909366008093650010C0E0912A
S11314700A03F0910B030580F681E02D0680F781C5
S1131480E02D828193819093660080936500209182
S1131490040330910503809165009091660028173C
S11314A0390708F46AC0E0910A03F0910B038081C4
S11314B0882399F0E0910A03F0910B030580F681EB
S11314C0E02DC681D7818A819B81209104033091CC
S11314D0050328173907F8F419C08FEF9FEF90938D
S11314E066008093650049C0E0910A03F0910B0304
S11314F00580F681E02DC681D7818A819B81209168
S11315000403309105032817390728F490936600E3
S11315108093650032C08E010E5F1F4FC8010E9488
S11315201E038C899D89009721F0CE010C960E94A0
S11315301E038E8990910303981710F4809303037C
S113154090E09C01220F331F220F331F220F331F01
S1131550820F931F825F9C4FB8010E94B802E091F2
S11315600A03F0910B038081882309F0BDCFB5CF26
S1131570809100038F5F80930003DF91CF911F91CF
S11315800F910895AF92BF92CF92DF92EF92FF92A4
S11315900F931F93CF93DF930FB6F8940F9280911C
S11315A0010381508093010380910103882309F092
S11315B069C080910603882381F567C0D601ED9147
S11315C0FC91C681D781CE010C960E941E038E0128
S11315D00E5F1F4FC8010E941E038E899091030362
S11315E0981710F48093030390E09C01220F331F9B
S11315F0220F331F220F331F820F931F825F9C4FD2
S1131600B8010E94B802E091FC02F091FD029E89AB
S11316108689981788F0BA2C0FC0BB240F2EFBE3E1
S1131620EF2EF3E0FF2EF02D0F2EF0E4CF2EF3E09B
S1131630DF2EF02DAA24A394F7018081882309F0DA
S1131640BDCF80910003882381F08091000388231B
S113165099F00E94FC09809100038150809300035B
S1131660809100038823A9F707C0F1E0BF1621F099
S11316708091FF02813041F41092FF020E940A041B
S113168081E003C080E001C080E00F900FBEDF91D5
S1131690CF911F910F91FF90EF90DF90CF90BF906B
S11316A0AF90089504E413E00F2EF9E4EF2EF3E075
S11316B0FF2EF02D809107038823E1F30E94E409B3
S11316C0D801CC910E94C20ACC23A1F30FB6F8949E
S11316D00F92D701ED91FC91C681D781CE0102967C
S11316E00E941E038091060381508093060380911B
S11316F007038150809307030F900FBE8F89988D45
S11317000E949702CE010E949702D4CFCF93DF9319
S1131710EC010097B1F00E94E409809104039091D8
S11317200503C80FD91F8091FC029091FD02029617
S11317300E941E03CE010E9420080E94C20A882330
S113174011F40E940A04DF91CF9108950F931F931F
S1131750CF93DF938C01EB010E94E409F8018081AF
S11317609181C80FD91F20910403309105032817D4
S1131770390768F4C817D90750F58091040390918C
S11317800503D183C0838C179D07B0F40BC0C81721
S1131790D907C8F080910403909105038C179D0725
S11317A090F015C08091FC029091FD0202960E9477
S11317B01E03CE010E9420080E94C20A882359F405
S11317C00E940A0408C0F801D183C083EBCFF8015A
S11317D0D183C083F1CFDF91CF911F910F910895F1
S11317E080910103882399F48091030390E0FC0124
S11317F0EE0FFF1FEE0FFF1FEE0FFF1F8E0F9F1F39
S1131800FC01E25FFC4F8081882329F01BC081E04A
S11318108093FF0208958091030381508093030312
S11318208091030390E0FC01EE0FFF1FEE0FFF1FFA
S1131830EE0FFF1F8E0F9F1FFC01E25FFC4F8081A4
S1131840882349F38091030390E0FC01EE0FFF1F0E
S1131850EE0FFF1FEE0FFF1FE80FF91FE25FFC4FB3
S1131860A181B28112960D90BC91A02DB283A18367
S1131870CF010396A817B90731F412968D919C9164
S11318801397928381830180F281E02D8681978171
S11318909093FD028093FC020895CF93DF93EB01B4
S11318A06091FC027091FD02645F7F4F0E94E1022F
S11318B08091FC029091FD0202960E941E03809189
S11318C00403909105038C0F9D1F0E942008DF9153
S11318D0CF9108950F931F93CF93DF93DC01159657
S11318E0ED91FC91169706811781E8012C96CE01A3
S11318F00E941E03809101038823E9F4E8012296E3
S1131900CE010E941E03F801868990910303981763
S113191010F48093030390E09C01220F331F220FE5
S1131920331F220F331F820F931F825F9C4FBE0110
S11319300E94B80205C08BE393E0BE010E94B80286
S1131940E091FC02F091FD0281E0D80156962C91C1
S113195056979689291708F480E0DF91CF911F915B
S11319600F910895FC018091FE028083809104030D
S113197090910503928381830895FC010FB6F89436
S11319800F928091FE029081981749F08091040390
S1131990909105032181328182179307F0F480919D
S11319A004039091050321813281DB014D915C9107
S11319B01197821B930B8417950788F48091040375
S11319C090910503281B390B240F351F2D933C934D
S11319D0CF010E94B20C80E003C081E001C081E02D
S11319E00F900FBE089581E08093FF020895FB01DC
S11319F0DC0102C001900D9241505040D8F7089587
S1131A00DC0101C06D9341505040E0F70895FB01A3
S1131A10DC014150504048F001900D920020C9F77C
S1131A2001C01D9241505040E0F70895F894FFCF53
S10B1A3049444C4500FFFF008E
S9030000FC
