:100000000C942A000C948C080C9447000C94470024
:100010000C9447000C9447000C9447000C941F0567
:100020000C9447000C9447000C9447000C94470034
:100030000C9447000C9447000C9447000C94470024
:100040000C9447000C9447000C9447000C94470014
:100050000C94470011241FBECFE5D8E0DEBFCDBF12
:1000600010E0A0E6B0E0E6EEFDE102C005900D92E2
:10007000AE37B107D9F713E0AEE7B0E001C01D928B
:10008000A536B107E1F70E9453080C94F10E0C94C9
:100090000000AF92BF92CF92DF92EF92FF920F9348
:1000A0001F93CF93DF936C01F62EE42E8AE190E04C
:1000B0000E948002082F192F0115110509F463C051
:1000C00080917E0090917F00009739F510937F001A
:1000D00000937E00CAE8D0E0CE010E944C03CE011E
:1000E00009960E944C03C6EAD0E0CE010E944C0360
:1000F0000F2EFFEAAF2EF0E0BF2EF02DC5010E94BB
:100100004C0380E890E00E944C03D093A300C0937E
:10011000A200B092A500A092A400FF2011F0FF243D
:10012000F394F801118E108EF68AE78AE801C992DD
:10013000D992CE010E945A03C8010C960E945A031C
:10014000F80111870087138B028B82E090E08F19F2
:10015000910995878487868990918900981710F472
:100160008093890090E09C01220F331F220F331FE0
:10017000220F331F820F931F86579F4FBE010E948D
:100180005E0381E001C08FEFDF91CF911F910F914E
:10019000FF90EF90DF90CF90BF90AF9008950F93B6
:1001A0001F93CF93DF938B01C091A000D091A1004A
:1001B000C80FD91F80917E0090917F0002960E9407
:1001C000C40360917E0070917F00FB01D383C283E2
:1001D0008091A0009091A100C817D90748F46E5FE4
:1001E0007F4F8091A4009091A5000E94850308C0D4
:1001F0006E5F7F4F8091A2009091A3000E948503C3
:100200000115110549F060917E0070917F00645FD7
:100210007F4FC8010E948503DF91CF911F910F91FD
:100220000895CF92DF92EF92FF920F931F93CF9397
:10023000DF93809180008823B9F10F2EF5E8EF2E2F
:10024000F0E0FF2EF02D0F2EF0E8CF2EF0E0DF2EA5
:10025000F02DF894D701ED91FC91C681D781CE01A4
:100260000C960E94C40378948E010E5F1F4FC80144
:100270000E94C4038E8990918900981710F480938E
:10028000890090E09C01220F331F220F331F220FA1
:10029000331F820F931F86579F4FB8010E945E0342
:1002A000F60180818823A9F60E94400B20919C00D2
:1002B00030919D00821B930B90939F0080939E0032
:1002C00074C02091A0003091A1002F5F3F4F309368
:1002D000A1002093A000019790939F0080939E001F
:1002E0002115310581F48091A2009091A300209105
:1002F000A4003091A5003093A3002093A200909316
:10030000A5008093A400E091A200F091A300808159
:10031000882309F44AC00580F681E02DC681D78183
:100320002A813B818091A0009091A10082179307C0
:1003300078F43BC00580F681E02DC681D7812A8103
:100340003B818091A0009091A1008217930768F1F2
:10035000F8948E010E5F1F4FC8010E94C4038C8960
:100360009D89009721F0CE010C960E94C4037894D9
:100370008E8990918900981710F48093890090E0FD
:100380009C01220F331F220F331F220F331F820FB6
:10039000931F86579F4FB8010E945E03E091A20011
:1003A000F091A3008081882329F680919E0090918E
:1003B0009F00009709F085CF8091A0009091A10047
:1003C00090939D0080939C0040918900842F90E041
:1003D000FC01EE0FFF1FEE0FFF1FEE0FFF1FE80FD8
:1003E000F91FE657FF4F20812223E9F4442331F41B
:1003F00057C0442329F44093890052C02AE830E0D2
:100400004150842F90E0FC01EE0FFF1FEE0FFF1F05
:10041000EE0FFF1FE80FF91FE20FF31F5081552366
:1004200041F3409389009C01220F331F220F331F99
:10043000220F331F280F391FD901A657BF4F11961E
:10044000ED91FC9112970280F381E02D1296FC93BE
:10045000EE93119723573F4FE217F30729F42281B8
:100460003381FD0132832183FC01EE0FFF1FEE0F6C
:10047000FF1FEE0FFF1F8E0F9F1FFC01E657FF4F60
:100480000180F281E02DA681B781B0937F00A09317
:100490007E00ED91FC911197CD0157966C910995D5
:1004A000DF91CF911F910F91FF90EF90DF90CF9050
:1004B00008950F931F93CF93DF93DC011596ED9171
:1004C000FC91169706811781E8012C96CE010E94B7
:1004D000C40380E890E0BE010E945E03E0917E00CC
:1004E000F0917F0081E0D80156962C91569796891D
:1004F000291708F480E0DF91CF911F910F910895A3
:10050000EF92FF920F931F93CF93DF938C010E9482
:100510003A0BC091B800D091B9000C0F1D1F22E01A
:100520000835120750F4C017D10750F4C654DF4FF6
:100530001093B9000093B80005C0C0E0D0E002C03D
:10054000C0E0D0E00E941C0C7E018C2F9F2DDF911B
:10055000CF911F910F91FF90EF9008950895109201
:10056000B9001092B80008958091B8009091B90038
:1005700028E532E0281B390B822F932F0895C2986B
:1005800089EF90E00197F1F700C00000C29A8BED6F
:1005900095E00197F1F700C0000008951F93182F10
:1005A000C098C19888B38F7088BB88B3912F907F13
:1005B000892B88BB0E94BF0288B38F7088BB88B329
:1005C0001295107F182B18BB0E94BF021F9108952F
:1005D0008FEF87BB84E088BB83E30E94CE0282E377
:1005E0000E94CE0288E20E94CE028CE00E94CE02DF
:1005F00008951F93182FC09AC19888B38F7088BB35
:1006000088B3912F907F892B88BB0E94BF0288B34B
:100610008F7088BB88B31295107F182B18BB0E946F
:10062000BF021F910895813051F0813028F082304F
:1006300049F0833069F409C0862F80580AC0862F9C
:10064000805407C0862F805804C0862F805801C070
:1006500080E80E94CE02089581E00E94CE020895B3
:10066000CF93DF93EC018881882331F021960E949B
:10067000F90289918823D9F7DF91CF910895CF931B
:10068000DF93EC01862F642F0E941303CE010E949A
:100690003003DF91CF910895FC010396928381830B
:1006A0002FEF3FEF3483238396838583908787835F
:1006B00010820895FC01118610860895CF93DF9370
:1006C000FC01DB0121813281E9018A819B81139642
:1006D0009C938E9312978181928115969C938E9311
:1006E00014978A819B81EC017D836C83E9017B8374
:1006F0006A83728361831996FC93EE9318978081C5
:100700008F5F8083DF91CF910895CF93DF93FC01BA
:10071000DB012D913C911197BFEF2F3F3B0719F45F
:10072000A781B08518C0DC0113961296CD91DC919B
:100730001397888199812817390768F012960D90D0
:10074000BC91A02D1296CD91DC911397888199814F
:100750002817390798F712968D919C911397EB0102
:100760009B838A83EC017D836C83EB01BD83AC8327
:1007700013967C936E931297F987E88780818F5F39
:100780008083DF91CF910895FC01A281B3818481A0
:10079000958115969C938E931497A481B58182813F
:1007A000938113969C938E931297A085B185119691
:1007B0008D919C9112978E179F0731F484819581BA
:1007C00012969C938E931197118610868C9181506E
:1007D0008C93089521E1FC01208392E2929383E3BC
:1007E000829362937293129280E88293129282E0D3
:1007F000829383E0829384E0829385E0829386E013
:10080000829387E0829388E0829389E0829380E1FB
:100810008293229382E1829383E1829384E18293A3
:1008200085E1829386E1829387E1829388E18293D6
:1008300089E1829380E2829381E28293929383E2C0
:1008400082934293529386E2829387E2829388E274
:10085000829389E2829380E3829381E382939F0172
:1008600021503040822F932F08951BBC8CE78ABD06
:100870008BE08EBD89B7806189BFA0911203B091D2
:100880001303CD91CDBFDD91DEBFFF91EF91DF91DD
:10089000CF91BF91AF919F918F917F916F915F9118
:1008A0004F913F912F911F910F91FF90EF90DF900B
:1008B000CF90BF90AF909F908F907F906F905F9000
:1008C0004F903F902F901F900F900FBE0F90089564
:1008D00081E0089508950F920FB6F8940F921F9239
:1008E00011242F923F924F925F926F927F928F923C
:1008F0009F92AF92BF92CF92DF92EF92FF920F93AF
:100900001F932F933F934F935F936F937F938F9397
:100910009F93AF93BF93CF93DF93EF93FF93A091F8
:100920001203B09113030DB60D920EB60D920E94F4
:10093000550DA0911203B0911303CD91CDBFDD9160
:10094000DEBFFF91EF91DF91CF91BF91AF919F916A
:100950008F917F916F915F914F913F912F911F9157
:100960000F91FF90EF90DF90CF90BF90AF909F904E
:100970008F907F906F905F904F903F902F901F903F
:100980000F900FBE0F9008950F920FB6F8940F922C
:100990001F9211242F923F924F925F926F927F92FB
:1009A0008F929F92AF92BF92CF92DF92EF92FF927F
:1009B0000F931F932F933F934F935F936F937F9367
:1009C0008F939F93AF93BF93CF93DF93EF93FF9357
:1009D000A0911203B09113030DB60D920EB60D92B5
:1009E0000E94560B0E94550DA0911203B091130363
:1009F000CD91CDBFDD91DEBFFF91EF91DF91CF9122
:100A0000BF91AF919F918F917F916F915F914F9126
:100A10003F912F911F910F91FF90EF90DF90CF901A
:100A2000BF90AF909F908F907F906F905F904F900E
:100A30003F902F901F900F900FBE0F9008950E942F
:100A4000C4041895CF93DF93FC01A081B181109766
:100A5000B9F0448D26813781240F311D37832683D9
:100A6000C281D3812C173D0710F0B783A68336814E
:100A70002781862F972F632F722F50E00E94D20E6E
:100A8000DF91CF910895CF93DF93EC012C8D22233A
:100A9000A9F14423B9F48C819D81422F50E00E943A
:100AA000D20E2C8D8C819D81820F911D9D838C8314
:100AB0002A813B818217930708F1888199819D8360
:100AC0008C831CC08E819F81422F50E00E94D20EE9
:100AD0002C8D30E0309521953F4F8E819F81820F84
:100AE000931F9F838E83488159818417950730F423
:100AF0008A819B81280F391F3F832E838A8D8F5FC8
:100B00008A8FDF91CF9108950F931F93CF93DF9337
:100B1000EC010FB6F8940F928E8D1816BCF48989EB
:100B2000882329F413C08989882321F40FC08E01FA
:100B30000F5E1F4FC8010E94410E882311F00E94D2
:100B4000CE0E8E8D81508E8F18166CF38FEF8E8F98
:100B50000F900FBE0FB6F8940F928D8D1816BCF43F
:100B60008885882329F413C08885882321F40FC041
:100B70008E01085F1F4FC8010E94410E882311F0AB
:100B80000E94CE0E8D8D81508D8F18166CF38FEFD5
:100B90008D8F0F900FBEDF91CF911F910F91089510
:100BA0008F929F92AF92BF92CF92DF92EF92FF927D
:100BB0000F931F93CF93DF93182F062F882309F4E9
:100BC00049C08FE190E00E948002E82EF92EE701F3
:100BD000209709F442C0A12EBB24802E99248A9C20
:100BE00060018B9CD00C9A9CD00C1124C6010196FC
:100BF0000E948002282F392F39832883211531053F
:100C000019F1C20ED31EDB82CA821A8E3D832C8359
:100C10000894A108B108A89CC001A99C900DB89C9B
:100C2000900D1124280F391F3F832E831B8F0C8FAB
:100C30008FEF8D8F8E8FCE0108960E944C03CE01D0
:100C400041960E944C030BC0CE010E94AE02C0E050
:100C5000D0E005C0C0E0D0E002C0C0E0D0E07E013E
:100C60008C2F9F2DDF91CF911F910F91FF90EF90CF
:100C7000DF90CF90BF90AF909F908F9008951F937B
:100C8000162F60E00E94D005FC01009709F0128F3A
:100C90008E2F9F2F1F9108955F926F927F928F9258
:100CA0009F92AF92BF92CF92DF92EF92FF920F93FB
:100CB0001F93DF93CF9300D000D00F92CDB7DEB754
:100CC0008C013B015D834C83522EDD247E01089410
:100CD000E11CF11CCC24C394AA24BB246894A2F880
:100CE000AC0EBD1E88249924689483F8880E991E42
:100CF0000FB6F8940F92F801928D838D9817A8F48F
:100D0000C801B301452D0E944305F801818988235C
:100D100041F0C80141960E94410E813011F40E94B9
:100D20006B040F900FBE81E04EC08C819D810097B7
:100D300021F40F900FBE80E046C0DD2021F4C701F2
:100D40000E94870EDC2C0F900FBE0E943A0B0FB64C
:100D5000F8940F92F801858D8F3F09F4158EF801F4
:100D6000868D8F3F09F4168E0F900FBEC701B50117
:100D70000E94920E882309F50FB6F8940F92F8019D
:100D8000928D0F900FBEF801838D981781F46C81BE
:100D90007D81C4010E94150EC8010E9484050E9435
:100DA0001C0C882309F0A4CF0E946B04A1CFC801BA
:100DB0000E9484050E941C0C9BCFC8010E948405E0
:100DC0000E941C0C80E00F900F900F900F900F90DE
:100DD000CF91DF911F910F91FF90EF90DF90CF9017
:100DE000BF90AF909F908F907F906F905F9008958D
:100DF0000F931F93CF93DF93EC018A019A8D8B8D14
:100E00009817C0F4CE01422F0E9443058E8D8F3F6C
:100E100069F48989882381F0CE0141960E94410EB0
:100E2000882361F081E0F801808309C08F5F8E8F95
:100E300081E005C080E003C081E001C081E0DF9176
:100E4000CF911F910F9108955F926F927F928F9231
:100E50009F92AF92BF92CF92DF92EF92FF920F9349
:100E60001F93DF93CF9300D000D00F92CDB7DEB7A2
:100E70008C013B015D834C83522EDD247E0108945E
:100E8000E11CF11CCC24C394AA24BB246894A2F8CE
:100E9000AC0EBD1E0F2EF1E18F2E9924F02D880E81
:100EA000991E0FB6F8940F92F801828D882351F1A4
:100EB000E680F780C801B3010E942205552081F425
:100EC000F801828D8150828F80858823B9F0C80116
:100ED00008960E94410E813089F40E946B040EC076
:100EE000F801F782E6828189882341F0C8014196A2
:100EF0000E94410E882311F00E946B040F900FBED8
:100F000081E04CC08C819D81009721F40F900FBE31
:100F100080E044C0DD2021F4C7010E94870EDC2C54
:100F20000F900FBE0E943A0B0FB6F8940F92F80183
:100F3000858D8F3F09F4158EF801868D8F3F09F45A
:100F4000168E0F900FBEC701B5010E94920E882326
:100F5000F9F40FB6F8940F92F801828D0F900FBE3E
:100F6000882381F46C817D81C4010E94150EC80123
:100F70000E9484050E941C0C882309F092CF0E94D5
:100F80006B048FCFC8010E9484050E941C0C89CF7E
:100F9000C8010E9484050E941C0C80E00F900F90F5
:100FA0000F900F900F90CF91DF911F910F91FF90B5
:100FB000EF90DF90CF90BF90AF909F908F907F90F9
:100FC0006F905F9008950F931F93CF93DF93EC0181
:100FD0008A018A8D8823D1F0CE010E9422058A8D54
:100FE00081508A8F8D8D8F3F69F48885882381F0A9
:100FF000CE0108960E94410E882361F081E0F8013D
:10100000808309C08F5F8D8F81E005C080E003C0C1
:1010100081E001C081E0DF91CF911F910F91089590
:101020000FB6F8940F92FC01828D0F900FBE0895B9
:10103000FC01828D0895CF93DF93EC018881998123
:101040000E94AE02CE010E94AE02DF91CF910895C0
:10105000FC01928D81E0911180E00895FC01228DC8
:1010600081E0938D291380E00895CF93DF93C0E64C
:10107000D0E0809163039091640360E070E04FEFF3
:101080005FEF20E00E942407CE010E9430038FEF23
:1010900094E3ACE081509040A040E1F700C0000034
:1010A0000E942C03E6CFAF92BF92CF92DF92EF92D5
:1010B000FF920F938A98929A85B78C7F85BF8BB7E2
:1010C00080648BBF8FB780688FBF0E94E80281E089
:1010D00060E00E943F06909364038093630385E37E
:1010E00098E061E770E045E550E020E030E002E0A4
:1010F000EE24FF24CC24DD24AA24BB240E94F00883
:101100000E94090B80E090E00F91FF90EF90DF903C
:10111000CF90BF90AF9008951F920F920FB60F928D
:1011200011242F933F934F935F936F937F938F93EC
:101130009F93AF93BF93EF93FF938091630390913D
:10114000640360E070E040E050E020E00E94F806B8
:10115000FF91EF91BF91AF919F918F917F916F918F
:101160005F914F913F912F910F900FBE0F901F9065
:101170001895CF93DF93EC01E0911203F0911303E4
:10118000938382838091160390911703C817D90720
:1011900068F480913E0390913F0360911203709137
:1011A00013036E5F7F4F0E94850317C08091400339
:1011B0009091410360911203709113036E5F7F4F12
:1011C0000E94850380917B0090917C00C817D9070D
:1011D00020F4D0937C00C0937B00DF91CF910895E1
:1011E0002F923F924F925F926F927F928F929F9237
:1011F000BF92CF92DF92EF92FF920F931F93CF9304
:10120000DF931C013B01EA012901B02E470181E275
:1012100090E00E948002082F192F0115110509F492
:10122000DDC0C114D10409F0F0C0CE010E948002DB
:10123000C82ED92EF801878B908FC114D10429F4C0
:10124000C8010E94AE028FEFCEC08C2D9D2D65EAA5
:1012500070E07E014C2F5F2D0E94DB0E2197F8017C
:101260008789908DC80FD91FC8014996B30148E0FE
:1012700050E00E94E20EF80110A2CB2CBB2011F02E
:10128000CC24C394F801C68AEE24FF246894E1F8C4
:10129000E00EF11EC7010E945A03C8010C960E947D
:1012A0005A03F8011187008782E090E08C199109B8
:1012B00095878487138B028BCE01B101A2010E9416
:1012C000EA03F801918380838114910419F0F401F9
:1012D000118300830FB6F8940F92809143038F5FC0
:1012E0008093430380911203909113030097A1F51B
:1012F0001093130300931203809143038130D9F5B7
:10130000CAE1D3E0CE010E944C03CE0109960E94AF
:101310004C03C1E5D3E0CE010E944C030F2EFAE549
:10132000CF2EF3E0DF2EF02DC6010E944C038CE29D
:1013300093E00E944C0386E493E00E944C0385E313
:1013400093E00E944C03D0934103C0934003D0929A
:101350003F03C0923E030FC080914403882359F499
:10136000E0911203F09113038689B81620F01093D0
:10137000130300931203F801868990915003981784
:1013800010F48093500390914F039F5F90934F030D
:1013900090911903981710F48093190390E09C0121
:1013A000220F331F220F331F220F331F820F931F71
:1013B000865E9C4FB7010E945E030F900FBE809126
:1013C0004403882369F0E0911203F09113038689A6
:1013D0008B1540F40E946B0481E005C08FEF03C0C1
:1013E00081E001C081E0DF91CF911F910F91FF90CB
:1013F000EF90DF90CF90BF909F908F907F906F90F5
:101400005F904F903F902F900895F801D08EC78A3B
:101410001CCFEF92FF920F931F93CF93DF93EC01BA
:101420000FB6F8940F928091120390911303C8178E
:10143000D90719F0209741F402C0C0E0D0E0009134
:1014400012031091130301C08E01EE24FF2468944F
:10145000E1F8E00EF11EC7010E94C403F80184897F
:101460009589009721F0C8010C960E94C40386E478
:1014700093E0B7010E945E03809145038F5F8093E4
:10148000450380914F038F5F80934F030F900FBEF2
:1014900080914403882321F0209711F40E946B046B
:1014A000DF91CF911F910F91FF90EF900895E82F5A
:1014B000F92F8285938523E08533920761F424898F
:1014C000358983E02C32380741F081E02115310560
:1014D00029F080E0089580E0089580E00895EF927B
:1014E000FF920F931F93CF93DF93E82EE7017E01C6
:1014F000F92EE7012097B9F180911203909113031F
:10150000E816F90681F10FB6F8940F92C7010E9410
:10151000570A813031F587010E5F1F4FC8010E94C5
:10152000C4038E8990911903981710F480931903BE
:1015300090E09C01220F331F220F331F220F331F15
:10154000820F931F865E9C4FB8010E945E03E0915C
:101550001203F09113039E898689981710F00E9458
:101560006B040F900FBEDF91CF911F910F91FF90F1
:10157000EF900895EF92FF921F93CF93DF93382F50
:10158000E82EE7017E01F92EE701832F0E94570A1A
:101590008130B9F580911803882351F5E091120349
:1015A000F091130311E09E898689981708F410E0E2
:1015B000EE24FF246894E1F8EC0EFD1EC7010E94A2
:1015C000C4038E8990911903981710F4809319031E
:1015D00090E09C01220F331F220F331F220F331F75
:1015E000820F931F865E9C4FB7010E945E030AC064
:1015F000B701645F7F4F8CE293E00E945E0310E0CE
:1016000001C010E0812FDF91CF911F91FF90EF90EB
:101610000895AF92BF92CF92DF92EF92FF920F9315
:101620008CEA9CE066E770E045E550E020E030E0C1
:1016300000E0EE24FF24CC24DD24AA24BB240E9455
:10164000F008813049F4F894809344031092170312
:10165000109216030E9435040F91FF90EF90DF90D7
:10166000CF90BF90AF900895F894109244030E94D9
:101670006A040895809118038F5F8093180308957A
:101680000FB6F8940F9220911603309117030F9024
:101690000FBE822F932F08952091160330911703C8
:1016A000822F932F08958091430308950F931F93E2
:1016B000CF93DF9380911803882309F0B3C0809102
:1016C00016039091170301969093170380931603C6
:1016D0008091160390911703009799F5809140032C
:1016E0009091410320913E0330913F033093410399
:1016F0002093400390933F0380933E038091150312
:101700008F5F80931503E0914003F0914103808146
:10171000882339F48FEF9FEF90937C0080937B00B8
:1017200010C0E0914003F09141030580F681E02D67
:101730000680F781E02D8281938190937C008093D5
:101740007B00209116033091170380917B009091CC
:101750007C002817390708F46AC0E0914003F09133
:1017600041038081882399F0E0914003F091410387
:101770000580F681E02DC681D7818A819B812091E9
:1017800016033091170328173907F8F419C08FEFA3
:101790009FEF90937C0080937B0049C0E0914003D1
:1017A000F09141030580F681E02DC681D7818A81C1
:1017B0009B8120911603309117032817390728F4CD
:1017C00090937C0080937B0032C08E010E5F1F4F90
:1017D000C8010E94C4038C899D89009721F0CE0125
:1017E0000C960E94C4038E8990911903981710F4E7
:1017F0008093190390E09C01220F331F220F331FA7
:10180000220F331F820F931F865E9C4FB8010E94E8
:101810005E03E0914003F09141038081882309F049
:10182000BDCFB5CF809142038F5F80934203DF919C
:10183000CF911F910F910895AF92BF92CF92DF92F7
:10184000EF92FF920F931F93CF93DF930FB6F8940D
:101850000F92809118038150809318038091180390
:10186000882309F069C080914303882381F567C00C
:10187000D601ED91FC91C681D781CE010C960E94D4
:10188000C4038E010E5F1F4FC8010E94C4038E89DE
:1018900090911903981710F48093190390E09C011C
:1018A000220F331F220F331F220F331F820F931F6C
:1018B000865E9C4FB8010E945E03E0911203F09196
:1018C00013039E898689981788F0BA2C0FC0BB2411
:1018D0000F2EFCE2EF2EF3E0FF2EF02D0F2EF1E3A2
:1018E000CF2EF3E0DF2EF02DAA24A394F701808100
:1018F000882309F0BDCF80914203882381F0809135
:101900004203882399F00E94560B80914203815034
:1019100080934203809142038823A9F707C0FB2DDF
:10192000F13021F080911403813041F410921403BE
:101930000E946B0481E003C080E001C080E00F9052
:101940000FBEDF91CF911F910F91FF90EF90DF902D
:10195000CF90BF90AF900895CF92DF92FF920F93F8
:101960001F93CF93DF9306E413E00F2EFBE4CF2EFB
:10197000F3E0DF2EF02D809145038823E1F30E94F0
:101980003A0BD801FC900E941C0CFF20A1F30FB66B
:10199000F8940F92D601ED91FC91C681D781CE01CA
:1019A00002960E94C40380914303815080934303B5
:1019B000809145038150809345030F900FBE8F891E
:1019C000988D0E94AE02CE010E94AE02D4CF0F933A
:1019D0001F93CF93DF93EC010097B1F00E943A0B75
:1019E0000091160310911703809112039091130335
:1019F00002960E94C403CE01800F911F0E94B90875
:101A00000E941C0C882311F40E946B04DF91CF917B
:101A10001F910F9108950F931F93CF93DF938C0124
:101A2000EB010E943A0BF80180819181C80FD91F08
:101A300020911603309117032817390768F4C81747
:101A4000D90750F58091160390911703D183C08375
:101A50008C179D07B0F40BC0C817D907C8F0809148
:101A60001603909117038C179D0790F015C0809175
:101A700012039091130302960E94C403CE010E94A8
:101A8000B9080E941C0C882359F40E946B0408C0FA
:101A9000F801D183C083EBCFF801D183C083F1CFAC
:101AA000DF91CF911F910F910895809118038823A2
:101AB00099F48091190390E0FC01EE0FFF1FEE0FE7
:101AC000FF1FEE0FFF1F8E0F9F1FFC01E65EFC4FF6
:101AD0008081882329F01DC081E08093140308953C
:101AE0002AE133E08091190381508093190380919A
:101AF000190390E0FC01EE0FFF1FEE0FFF1FEE0F2A
:101B0000FF1F8E0F9F1FF901E80FF91F80818823A7
:101B100049F38091190390E09C01220F331F220F9B
:101B2000331F220F331F280F391FD901A65EBC4F68
:101B30001196ED91FC9112970280F381E02D12969F
:101B4000FC93EE931197235E3C4FE217F30729F4C1
:101B500022813381FD0132832183FC01EE0FFF1FBF
:101B6000EE0FFF1FEE0FFF1F8E0F9F1FFC01E65EA3
:101B7000FC4F0180F281E02D8681978190931303C1
:101B8000809312030895EF92FF920F931F93CF93C8
:101B9000DF93EC010FB6F8940F92809112039091AD
:101BA0001303C817D90719F0209741F402C0C0E009
:101BB000D0E0009112031091130301C08E01EE24B6
:101BC000FF246894E1F8E00EF11EC7010E94C403EF
:101BD000F80184899589009721F0C8010C960E942C
:101BE000C40385E393E0B7010E945E030F900FBE2C
:101BF0002097A1F480914403882319F00E946B047C
:101C00000DC09091350380914303981729F41092E9
:101C100013031092120302C00E94550DDF91CF9161
:101C20001F910F91FF90EF900895CF93DF93EB01F9
:101C30006091120370911303645F7F4F0E948503CC
:101C4000809112039091130302960E94C4038FEFB8
:101C5000CF3FD80759F460911203709113036E5F60
:101C60007F4F85E393E00E945E0308C080911603D6
:101C7000909117038C0F9D1F0E94B908DF91CF919F
:101C800008950F931F93CF93DF93DC011596ED9189
:101C9000FC911697C681D7818E01045F1F4FC80142
:101CA0000E94C403809118038823E9F48E010E5F1B
:101CB0001F4FC8010E94C4038E8990911903981781
:101CC00010F48093190390E09C01220F331F220F20
:101CD000331F220F331F820F931F865E9C4FB80164
:101CE0000E945E0305C08CE293E0B8010E945E038F
:101CF000E0911203F091130381E02E899689291750
:101D000008F480E0DF91CF911F910F910895FC01BD
:101D1000809115038083809116039091170392831D
:101D200081830895FC01DB010FB6F8940F928D9129
:101D30009C9111972FEF8F3F920741F1209115034E
:101D40003081321749F020911603309117034181F9
:101D5000528124173507E0F4409116035091170380
:101D600021813281421B530B4817590798F4409147
:101D7000160350911703241B350B820F931F8D936D
:101D80009C93CF010E94870E80E005C080E003C0D5
:101D900081E001C081E00F900FBE089581E0809343
:101DA00014030895FB01DC0102C001900D92415023
:101DB0005040D8F70895DC0101C06D934150504068
:101DC000E0F70895FB01DC014150504048F00190DC
:101DD0000D920020C9F701C01D9241505040E0F71C
:061DE0000895F894FFCF06
:101DE600427574746F6E20707265737365643A44DD
:0E1DF600007461736B0049444C4500FFFF0010
:00000001FF
