:100000000C942A000C9447000C9447000C94470071
:100010000C9447000C9447000C9447000C94BE04C9
:100020000C9447000C9447000C9447000C94470034
:100030000C9447000C94D6070C9447000C9447008E
:100040000C9447000C9447000C9447000C94470014
:100050000C94470011241FBECFE5D8E0DEBFCDBF12
:1000600010E0A0E6B0E0ECE6FAE102C005900D92E7
:10007000A237B107D9F713E0A2E7B0E001C01D92A3
:10008000AA35B107E1F70E9410080C94340D0C94C6
:100090000000AF92BF92CF92DF92EF92FF920F9348
:1000A0001F93CF93DF936C01E62EF42E8AE190E04C
:1000B0000E946E028C01009709F462C08091720068
:1000C00090917300009739F51093730000937200BC
:1000D000C5E7D0E0CE010E94A602CE0109960E949B
:1000E000A602C7E8D0E0CE010E94A6020F2EF0E9DA
:1000F000AF2EF0E0BF2EF02DC5010E94A60289E9C7
:1001000090E00E94A602D093A300C093A200B092F8
:10011000A500A092A400CE2DE110C1E0F801118E3F
:10012000108EC68BF78AC192D1927F01CF010E94B7
:10013000B402C8010C960E94B402F801118700872E
:10014000138B028B83E090E08C1B91099587848749
:10015000868990917400981710F48093740090E051
:100160009C01220F331F220F331F220F331F820FD8
:10017000931F8B589F4FB7010E94B80281E001C0C6
:100180008FEFDF91CF911F910F91FF90EF90DF9054
:10019000CF90BF90AF9008950F931F93CF93DF93AD
:1001A0008B01C091A600D091A700C80FD91F8091E4
:1001B00072009091730002960E941E03E0917200FB
:1001C000F0917300D383C2838091A6009091A70021
:1001D000C817D90750F4BF016E5F7F4F8091A4000C
:1001E0009091A5000E94E10209C0BF016E5F7F4FA0
:1001F0008091A2009091A3000E94E10201151105D7
:1002000049F06091720070917300645F7F4FC80184
:100210000E94E102DF91CF911F910F910895CF923B
:10022000DF92EF92FF920F931F93CF93DF93809112
:1002300099008823B9F10F2EFEE9EF2EF0E0FF2E92
:10024000F02D0F2EF9E9CF2EF0E0DF2EF02DF894EF
:10025000D701ED91FC91C681D781CE010C960E9409
:100260001E0378948E010E5F1F4FC8010E941E036B
:100270008E8990917400981710F48093740090E028
:100280009C01220F331F220F331F220F331F820FB7
:10029000931F8B589F4FB8010E94B802F6018081CE
:1002A0008823A9F60E94080A2091A8003091A9008D
:1002B000821B930B9093AB008093AA0074C0209193
:1002C000A6003091A7002F5F3F4F3093A7002093E7
:1002D000A60001979093AB008093AA0021153105E9
:1002E00081F48091A2009091A3002091A40030910C
:1002F000A5003093A3002093A2009093A5008093C3
:10030000A400E091A200F091A3008081882309F469
:100310004AC00580F681E02DC681D7812A813B81C4
:100320008091A6009091A7008217930778F43BC0B4
:100330000580F681E02DC681D7812A813B8180919D
:10034000A6009091A7008217930768F1F8948E0198
:100350000E5F1F4FC8010E941E038C899D89009764
:1003600021F0CE010C960E941E0378948E89909104
:100370007400981710F48093740090E09C01220F91
:10038000331F220F331F220F331F820F931F8B58EF
:100390009F4FB8010E94B802E091A200F091A30023
:1003A0008081882329F68091AA009091AB00009764
:1003B00009F085CF8091A6009091A7009093A900A5
:1003C0008093A80020917400822F90E0FC01EE0F32
:1003D000FF1FEE0FFF1FEE0FFF1FE80FF91FEB5877
:1003E000FF4F30813323D9F4222331F447C0222335
:1003F00019F42093740042C02150822F90E0FC0138
:10040000EE0FFF1FEE0FFF1FEE0FFF1FE80FF91F8C
:10041000EB58FF4F3081332351F320937400FC01DC
:10042000EE0FFF1FEE0FFF1FEE0FFF1F8E0F9F1F20
:10043000FC01EB58FF4FA181B28112960D90BC9147
:10044000A02DB283A183CF010396A817B90731F479
:1004500012968D919C911397928381830180F281F2
:10046000E02DA681B781B0937300A0937200ED9147
:10047000FC911197CD0157966C910995DF91CF9121
:100480001F910F91FF90EF90DF90CF9008950F9301
:100490001F93CF93DF93DC011596ED91FC91169796
:1004A00006811781E8012C96CE010E941E0389E97E
:1004B00090E0BE010E94B802E0917200F0917300DA
:1004C00081E0D80156962C9156979689291708F401
:1004D00080E0DF91CF911F910F9108950F931F93AB
:1004E000CF93DF93EC010E94020A0091AC001091BF
:1004F000AD00C00FD11F82E0C835D80750F40C17EB
:100500001D0750F402551F4FD093AD00C093AC00AF
:1005100005C000E010E002C000E010E00E94E00A28
:10052000802F912FDF91CF911F910F910895089502
:100530001092AD001092AC0008952091AC00309163
:10054000AD0088E592E0821B930B0895FC010396B1
:10055000928381832FEF3FEF3483238396838583B8
:100560009087878310820895FC0111861086089574
:10057000CF93DF93EC01FB0189819A81DC01129614
:100580002D913C9113973383228329813A813583BE
:10059000248312962D913C911397D90115967C9343
:1005A0006E931497DC0113967C936E9312977A8363
:1005B0006983D187C08788818F5F8883DF91CF91DE
:1005C0000895CF93DF93AC01EB01288139818FEF40
:1005D0002F3F380721F4FA01A781B08518C0DA014E
:1005E0001396FA0185819681FC01808191812817FB
:1005F000390768F012960D90BC91A02D1296ED91DE
:10060000FC911397808191812817390798F71296EA
:10061000ED91FC911397FB83EA83D583C483BD835B
:10062000AC831396DC93CE93129759874887FA01CF
:1006300080818F5F8083DF91CF910895FC01A2813B
:10064000B3818481958115969C938E931497A48190
:10065000B5818281938113969C938E931297A08586
:10066000B18511968D919C9112978E179F0731F449
:100670008481958112969C938E9311971186108692
:100680008C9181508C93089521E1FC012083319756
:1006900032E23083FC013297A3E3A083FC0133975D
:1006A0006083FC0134977083FC0135971082FC0154
:1006B000369760E86083FC0137971082FC01389719
:1006C00062E06083FC01399763E06083FC013A9744
:1006D00064E06083FC013B9765E06083FC013C972C
:1006E00066E06083FC013D9767E06083FC013E9714
:1006F00068E06083FC013F9769E06083FC017097CC
:1007000060E16083FC0171972083FC01729722E114
:100710002083FC01739723E12083FC01749724E17B
:100720002083FC01759725E12083FC01769726E163
:100730002083FC01779727E12083FC01789728E14B
:100740002083FC01799729E12083FC017A9720E23C
:100750002083FC017B9721E22083FC017C9730837E
:10076000FC017D9723E22083FC017E974083FC01FE
:100770007F975083FC01B09726E22083FC01B1975C
:1007800027E22083FC01B29728E22083FC01B39783
:1007900029E22083FC01B49720E32083FC01B59774
:1007A00021E32083869708951BBC8CE78ABD8BE0EC
:1007B0008EBD89B7806189BFA0910803B0910903FC
:1007C000CD91CDBFDD91DEBFFF91EF91DF91CF9154
:1007D000BF91AF919F918F917F916F915F914F9159
:1007E0003F912F911F910F91FF90EF90DF90CF904D
:1007F000BF90AF909F908F907F906F905F904F9041
:100800003F902F901F900F900FBE0F90089581E0A2
:10081000089508950F920FB6F8940F921F92112425
:100820002F923F924F925F926F927F928F929F9200
:10083000AF92BF92CF92DF92EF92FF920F931F93EE
:100840002F933F934F935F936F937F938F939F93D8
:10085000AF93BF93CF93DF93EF93FF93A0910803E0
:10086000B09109030DB60D920EB60D920E940E0CBA
:10087000A0910803B0910903CD91CDBFDD91DEBFFA
:10088000FF91EF91DF91CF91BF91AF919F918F91A8
:100890007F916F915F914F913F912F911F910F9198
:1008A000FF90EF90DF90CF90BF90AF909F908F9090
:1008B0007F906F905F904F903F902F901F900F9080
:1008C0000FBE0F9008950F920FB6F8940F921F92DB
:1008D00011242F923F924F925F926F927F928F924C
:1008E0009F92AF92BF92CF92DF92EF92FF920F93BF
:1008F0001F932F933F934F935F936F937F938F93A8
:100900009F93AF93BF93CF93DF93EF93FF93A09108
:100910000803B09109030DB60D920EB60D920E9418
:100920001A0A0E940E0CA0910803B0910903CD9100
:10093000CDBFDD91DEBFFF91EF91DF91CF91BF91F0
:10094000AF919F918F917F916F915F914F913F9167
:100950002F911F910F91FF90EF90DF90CF90BF905C
:10096000AF909F908F907F906F905F904F903F904F
:100970002F901F900F900FBE0F9008950E94630458
:100980001895CF93DF93DC01CD91DC9111972097DF
:1009900021F15C964C915C9716962D913C9117979E
:1009A000240F311D17963C932E9316971296ED91B6
:1009B000FC9113972E173F0720F01796DC93CE93E8
:1009C000169716963C91169717962C91862F972F6F
:1009D000632F722F50E00E94150DDF91CF91089583
:1009E000CF93DF93EC012C8D2223A9F14423B9F49A
:1009F0008C819D81422F50E00E94150D2C8D8C81A1
:100A00009D81820F911D9D838C832A813B8182175A
:100A1000930708F1888199819D838C831CC08E8106
:100A20009F81422F50E00E94150D4C8D50E0509553
:100A300041955F4F8E819F81840F951F9F838E8389
:100A4000288139818217930730F48A819B81480F6E
:100A5000591F5F834E838A8D8F5F8A8FDF91CF917D
:100A600008950F931F93CF93DF93EC010FB6F89483
:100A70000F928E8D1816BCF48989882329F413C02F
:100A80008989882321F40FC08E010F5E1F4FC80192
:100A90000E94880C882311F00E94110D8E8D8150C8
:100AA0008E8F18166CF38FEF8E8F0F900FBE0FB6D0
:100AB000F8940F928D8D1816BCF48885882329F43C
:100AC00013C08885882321F40FC08E01085F1F4F53
:100AD000C8010E94880C882311F00E94110D8D8D91
:100AE00081508D8F18166CF38FEF8D8F0F900FBE86
:100AF000DF91CF911F910F910895AF92BF92CF9246
:100B0000DF92EF92FF920F931F93CF93DF93F82E14
:100B1000E62E882309F446C08FE190E00E946E0221
:100B20008C01009709F441C0CF2CDD24AE2CBB24EE
:100B3000CA9CE001CB9CD00DDA9CD00D1124CE01D3
:100B400001960E946E02AC01F801918380830097A8
:100B500019F1C80FD91FD383C283128E9583848362
:100B6000C6010197A89E9001A99E300DB89E300D38
:100B70001124240F351F37832683F38EE48E8FEFE5
:100B8000858F868FC80108960E94A602C8014196EB
:100B90000E94A602C8010BC0C8010E94970280E013
:100BA00090E005C080E090E002C080E090E0DF913E
:100BB000CF911F910F91FF90EF90DF90CF90BF905A
:100BC000AF9008958F929F92BF92CF92DF92EF9253
:100BD000FF920F931F93CF93DF9300D000D00F921B
:100BE000CDB7DEB78C014B015D834C83B22EFF2461
:100BF000EE24E394CC24DD246894C3F8C80ED91EF7
:100C00000FB6F8940F92F801928D838D9817A8F47F
:100C1000C801B4014B2D0E94F004F801818988239A
:100C200041F0C80141960E94880C813011F40E9465
:100C30000A040F900FBE81E052C08C819D81009705
:100C400021F40F900FBE80E04AC0FF2029F4CE01AE
:100C500001960E94D00CFE2C0F900FBE0E94020A3B
:100C60000FB6F8940F92F801858D8F3F09F4158E19
:100C7000F801868D8F3F09F4168E0F900FBECE01BE
:100C80000196BE016C5F7F4F0E94DB0C882309F543
:100C90000FB6F8940F92F801928D0F900FBEF801E5
:100CA000838D981781F46C817D81C6010E946B0C45
:100CB000C8010E9431050E94E00A882309F0A0CFF4
:100CC0000E940A049DCFC8010E9431050E94E00ADB
:100CD00097CFC8010E9431050E94E00A80E00F9082
:100CE0000F900F900F900F90DF91CF911F910F9168
:100CF000FF90EF90DF90CF90BF909F908F900895DE
:100D00000F931F93CF93DF93EC018A019A8D8B8D04
:100D10009817C0F4CE01422F0E94F0048E8D8F3FB1
:100D200069F48989882381F0CE0141960E94880C5C
:100D3000882361F081E0F801808309C08F5F8E8F86
:100D400081E005C080E003C081E001C081E0DF9167
:100D5000CF911F910F9108958F929F92BF92CF9242
:100D6000DF92EF92FF920F931F93CF93DF9300D008
:100D700000D00F92CDB7DEB78C014B015D834C8361
:100D8000B22EFF24EE24E3940F2EF1E1CF2EDD24CA
:100D9000F02DC80ED91E0FB6F8940F92F801828D6F
:100DA000882351F1E680F780C801B4010E94C10494
:100DB000BB2081F4F801828D8150828F8085882349
:100DC000B9F0C80108960E94880C813089F40E940D
:100DD0000A040EC0F801F782E6828189882341F077
:100DE000C80141960E94880C882311F00E940A04D1
:100DF0000F900FBE81E050C08C819D81009721F43F
:100E00000F900FBE80E048C0FF2029F4CE0101966C
:100E10000E94D00CFE2C0F900FBE0E94020A0FB64B
:100E2000F8940F92F801858D8F3F09F4158EF80123
:100E3000868D8F3F09F4168E0F900FBECE0101965E
:100E4000BE016C5F7F4F0E94DB0C8823F9F40FB664
:100E5000F8940F92F801828D0F900FBE882381F4D1
:100E60006C817D81C6010E946B0CC8010E94310516
:100E70000E94E00A882309F08ECF0E940A048BCFDB
:100E8000C8010E9431050E94E00A85CFC8010E9476
:100E900031050E94E00A80E00F900F900F900F90B4
:100EA0000F90DF91CF911F910F91FF90EF90DF9006
:100EB000CF90BF909F908F9008950F931F93CF93E3
:100EC000DF93EC018A018A8D8823D1F0CE010E9444
:100ED000C1048A8D81508A8F8D8D8F3F69F48885FA
:100EE000882381F0CE0108960E94880C882361F047
:100EF00081E0F801808309C08F5F8D8F81E005C09C
:100F000080E003C081E001C081E0DF91CF911F91BB
:100F10000F9108950FB6F8940F92FC01828D0F90F7
:100F20000FBE0895FC01828D0895CF93DF93EC01ED
:100F3000888199810E949702CE010E949702DF91D9
:100F4000CF910895FC01928D81E0911180E0089588
:100F5000FC01228D81E0938D291380E00895CF93C9
:100F6000DF930F92CDB7DEB78FEF8ABBFF24F394E8
:100F700000E610E08091060390910703BE016F5FC9
:100F80007F4F4FEF5FEF20E00E94AC06813091F77A
:100F90008981982F90539A3038F4F801E80FF11DA9
:100FA000F09780818BBBE6CFFBBAE4CF1F920F9204
:100FB0000FB60F9211242F933F934F935F936F932C
:100FC0007F938F939F93AF93BF93EF93FF938CB1D6
:100FD00080935903809106039091070369E573E0BC
:100FE00041E050E020E00E948006FF91EF91BF9128
:100FF000AF919F918F917F916F915F914F913F91B1
:101000002F910F900FBE0F901F9018951BB880E97D
:101010008AB986E880BD10BC83E389B978940895C5
:10102000AF92BF92CF92DF92EF92FF920F930E9406
:1010300006088FEA97E060E070E045E550E020E0C8
:1010400030E001E0EE24FF24CC24DD24AA24BB24DC
:101050000E94750881E062E00E947D05909307037D
:10106000809306030E94D10980E090E00F91FF90E9
:10107000EF90DF90CF90BF90AF900895CF93DF9324
:10108000EC01E0910803F09109039383828380913E
:10109000100390911103C817D90768F480911403C5
:1010A0009091150360910803709109036E5F7F4F63
:1010B0000E94E10217C0809116039091170360917E
:1010C0000803709109036E5F7F4F0E94E1028091D7
:1010D0006F0090917000C817D90720F4D09370006A
:1010E000C0936F00DF91CF9108954F925F926F92FE
:1010F0007F928F929F92BF92CF92DF92EF92FF9258
:101100000F931F93CF93DF932C014B01EA01390119
:10111000B02E81E290E00E946E028C01009709F4EB
:10112000DBC0C114D10409F0ECC0CE010E946E02F4
:101130006C01F801908F878B009729F4C8010E94F9
:1011400097028FEFCEC0C60165EA70E0AE010E9443
:101150001E0D9E0121503040F8018789908D6C0151
:10116000C20ED31EC8014996B40148E050E00E9467
:10117000250DF80110A2CB2DF2E0FB1508F4C2E01A
:10118000F801C68B88249924689481F8800E911EFA
:10119000C4010E94B402C8010C960E94B402F80176
:1011A0001187008783E090E08C1B910995878487E5
:1011B000138B028BC601B201A3010E944403F80104
:1011C00091838083E114F10419F0F7011183008306
:1011D0000FB6F8940F92809112038F5F80931203E1
:1011E00080910803909109030097A1F510930903DA
:1011F00000930803809112038130D9F5CAE1D3E04E
:10120000CE010E94A602CE0109960E94A602CE013E
:1012100042960E94A602C5E3D3E0CE010E94A60238
:101220000F2EFEE3EF2EF3E0FF2EF02DC7010E94FC
:10123000A60287E493E00E94A60280E593E00E9464
:10124000A602D0931703C0931603F0921503E09201
:1012500014030FC080910E03882359F4E091080312
:10126000F09109038689B81620F0109309030093C2
:101270000803F801868990911803981710F4809359
:101280001803909119039F5F9093190390910F0396
:10129000981710F480930F0390E09C01220F331FE6
:1012A000220F331F220F331F820F931F865E9C4F26
:1012B000B4010E94B8020F900FBE80910E038823E4
:1012C00069F0E0910803F091090386898B1540F4D9
:1012D0000E940A0481E005C08FEF03C081E001C0D5
:1012E00081E0DF91CF911F910F91FF90EF90DF9000
:1012F000CF90BF909F908F907F906F905F904F9016
:101300000895FC01D08EC78A1ECFEF92FF920F93F3
:101310001F93CF93DF937C010FB6F8940F928091C7
:10132000080390910903E816F90621F0E114F1048D
:1013300041F402C0EE24FF24C0910803D0910903B8
:1013400001C0E7018E010E5F1F4FC8010E941E03FE
:101350008C899D89009721F0CE010C960E941E0376
:1013600080E593E0B8010E94B802809113038F5F7B
:1013700080931303809119038F5F809319030F905B
:101380000FBE80910E03882329F0E114F10411F4BB
:101390000E940A04DF91CF911F910F91FF90EF906F
:1013A0000895AF92BF92CF92DF92EF92FF920F9388
:1013B00080E79BE06AE670E045E550E020E030E041
:1013C00000E0EE24FF24CC24DD24AA24BB240E94C8
:1013D0007508813049F4F89480930E03109211033C
:1013E000109210030E94D4030F91FF90EF90DF90B2
:1013F000CF90BF90AF900895F89410920E030E9482
:101400000904089580910D038F5F80930D03089563
:101410000FB6F8940F9280911003909111030F90E2
:101420000FBE08958091100390911103089580914B
:10143000120308950F931F93CF93DF9380910D03B1
:10144000882309F0B3C08091100390911103019695
:1014500090931103809310038091100390911103D6
:10146000009799F58091160390911703209114032A
:1014700030911503309317032093160390931503AF
:101480008093140380910A038F5F80930A03E09195
:101490001603F09117038081882339F48FEF9FEFB3
:1014A0009093700080936F0010C0E0911603F0914C
:1014B00017030580F681E02D0680F781E02D8281FB
:1014C00093819093700080936F002091100330916E
:1014D000110380916F00909170002817390708F46C
:1014E0006AC0E0911603F09117038081882399F078
:1014F000E0911603F09117030580F681E02DC68177
:10150000D7818A819B812091100330911103281784
:101510003907F8F419C08FEF9FEF90937000809314
:101520006F0049C0E0911603F09117030580F68122
:10153000E02DC681D7818A819B8120911003309153
:1015400011032817390728F49093700080936F00D7
:1015500032C08E010E5F1F4FC8010E941E038C898E
:101560009D89009721F0CE010C960E941E038E8962
:1015700090910F03981710F480930F0390E09C0153
:10158000220F331F220F331F220F331F820F931F8F
:10159000865E9C4FB8010E94B802E0911603F0915C
:1015A00017038081882309F0BDCFB5CF80910C034C
:1015B0008F5F80930C03DF91CF911F910F9108955E
:1015C000AF92BF92CF92DF92EF92FF920F931F9351
:1015D000CF93DF930FB6F8940F9280910D03815053
:1015E00080930D0380910D03882309F069C08091D9
:1015F0001203882381F567C0D601ED91FC91C68165
:10160000D781CE010C960E941E038E010E5F1F4FE4
:10161000C8010E941E038E8990910F03981710F441
:1016200080930F0390E09C01220F331F220F331F82
:10163000220F331F820F931F865E9C4FB8010E94BA
:10164000B802E0910803F09109039E8986899817F2
:1016500088F0BA2C0FC0BB240F2EF7E4EF2EF3E076
:10166000FF2EF02D0F2EFCE4CF2EF3E0DF2EF02D19
:10167000AA24A394F7018081882309F0BDCF80912B
:101680000C03882381F080910C03882399F00E9439
:101690001A0A80910C03815080930C0380910C03F3
:1016A0008823A9F707C0F1E0BF1621F080910B0352
:1016B000813041F410920B030E940A0481E003C0C0
:1016C00080E001C080E00F900FBEDF91CF911F91AD
:1016D0000F91FF90EF90DF90CF90BF90AF90089563
:1016E00000E513E00F2EF5E5EF2EF3E0FF2EF02DD1
:1016F000809113038823E1F30E94020AD801CC9160
:101700000E94E00ACC23A1F30FB6F8940F92D70100
:10171000ED91FC91C681D781CE0102960E941E03F5
:1017200080911203815080931203809113038150A2
:10173000809313030F900FBE8F89988D0E9497029C
:10174000CE010E949702D4CFCF93DF93EC01009794
:10175000B1F00E94020A8091100390911103C80F0A
:10176000D91F809108039091090302960E941E03DD
:10177000CE010E943E080E94E00A882311F40E94D4
:101780000A04DF91CF9108950F931F93CF93DF93B6
:101790008C01EB010E94020AF80180819181C80F3F
:1017A000D91F20911003309111032817390768F4CD
:1017B000C817D90750F58091100390911103D18378
:1017C000C0838C179D07B0F40BC0C817D907C8F0A9
:1017D00080911003909111038C179D0790F015C014
:1017E000809108039091090302960E941E03CE0186
:1017F0000E943E080E94E00A882359F40E940A04CD
:1018000008C0F801D183C083EBCFF801D183C08336
:10181000F1CFDF91CF911F910F91089580910D032A
:10182000882399F480910F0390E0FC01EE0FFF1FD5
:10183000EE0FFF1FEE0FFF1F8E0F9F1FFC01E65ED6
:10184000FC4F8081882329F01BC081E080930B032B
:10185000089580910F03815080930F0380910F03AF
:1018600090E0FC01EE0FFF1FEE0FFF1FEE0FFF1FBA
:101870008E0F9F1FFC01E65EFC4F8081882349F399
:1018800080910F0390E0FC01EE0FFF1FEE0FFF1F92
:10189000EE0FFF1FE80FF91FE65EFC4FA181B2813A
:1018A00012960D90BC91A02DB283A183CF01039617
:1018B000A817B90731F412968D919C9113979283D2
:1018C00081830180F281E02D8681978190930903C5
:1018D000809308030895CF93DF93EB016091080391
:1018E00070910903645F7F4F0E94E10280910803B9
:1018F0009091090302960E941E038091100390911B
:1019000011038C0F9D1F0E943E08DF91CF91089517
:101910000F931F93CF93DF93DC011596ED91FC910C
:10192000169706811781E8012C96CE010E941E03AE
:1019300080910D038823E9F4E8012296CE010E94EC
:101940001E03F801868990910F03981710F4809375
:101950000F0390E09C01220F331F220F331F220F31
:10196000331F820F931F865E9C4FBE010E94B802F8
:1019700005C087E493E0BE010E94B802E09108032D
:10198000F091090381E0D80156962C9156979689DB
:10199000291708F480E0DF91CF911F910F910895EE
:1019A000FC0180910A0380838091100390911103C0
:1019B000928381830895FC010FB6F8940F92809171
:1019C0000A039081981749F08091100390911103B8
:1019D0002181328182179307F0F480911003909156
:1019E000110321813281DB014D915C911197821BA2
:1019F000930B8417950788F480911003909111033D
:101A0000281B390B240F351F2D933C93CF010E94C7
:101A1000D00C80E003C081E001C081E00F900FBED8
:101A2000089581E080930B030895FB01DC0102C05F
:101A300001900D9241505040D8F70895DC0101C04B
:101A40006D9341505040E0F70895FB01DC01415097
:101A5000504048F001900D920020C9F701C01D923E
:0C1A600041505040E0F70895F894FFCF8B
:101A6C007E066D4F175B7B0E7F5F49444C4500FF34
:021A7C00FF0069
:00000001FF
